:020000040800F2
:10000000000002209D610008ED610008ED6100081C
:10001000ED610008ED610008ED61000800000000DE
:10002000000000000000000000000000ED6100087A
:10003000ED61000800000000ED610008ED610008BE
:10004000ED610008ED610008ED610008ED61000858
:10005000ED610008ED610008ED610008ED61000848
:10006000ED610008ED610008ED610008ED61000838
:10007000ED610008ED610008ED610008ED61000828
:10008000ED610008ED610008ED610008ED61000818
:10009000ED610008ED610008ED610008ED61000808
:1000A000ED610008ED610008ED610008ED610008F8
:1000B000ED610008ED610008ED610008ED610008E8
:1000C000ED610008ED610008ED610008ED610008D8
:1000D000ED610008ED610008ED610008ED610008C8
:1000E000ED610008ED610008ED610008ED610008B8
:1000F000ED610008ED610008ED610008ED610008A8
:10010000ED610008ED610008ED610008ED61000897
:10011000ED610008ED610008ED610008ED61000887
:10012000ED610008ED610008ED610008ED61000877
:10013000ED610008ED610008ED610008ED61000867
:10014000ED610008ED610008ED610008ED61000857
:10015000ED610008ED610008ED610008ED61000847
:10016000ED610008ED610008ED610008ED61000837
:10017000ED610008ED610008ED610008000000007D
:08018000ED610008ED610008CB
:1001900010B5054C237833B9044B13B10448AFF3C1
:1001A00000800123237010BD90000020000000009B
:1001B0003062000808B5034B1BB103490348AFF395
:1001C000008008BD0000000094000020306200089C
:1001D00001F0FF01102A2BDB10F0070F08D010F8F8
:1001E000013B013A8B422DD010F0070F42B3F6D1FC
:1001F000F0B441EA012141EA014122F007047FF015
:1002000000070023F0E80256083C85EA010586EA6B
:10021000010685FA47F5A3FA87F586FA47F6A5FAA7
:1002200087F68EB9EED1F0BC01F0FF0102F00702B3
:1002300032B110F8013B013A83EA010313B1F8D15E
:100240000020704701387047002D06BF354603383F
:10025000073815F0010F07D1013015F4807F02BF78
:10026000013015F4C03F0130F0BC0138704700BFC9
:1002700080F0004002E000BF81F0004142001FBF5B
:100280005FEA410392EA030F7FEA226C7FEA236C64
:100290006AD04FEA1262D2EB1363C1BFD218414059
:1002A00048404140B8BF5B42192B88BF704710F0EF
:1002B000004F40F4000020F07F4018BF404211F092
:1002C000004F41F4000121F07F4118BF494292EAFA
:1002D000030F3FD0A2F1010241FA03FC10EB0C0026
:1002E000C3F1200301FA03F100F0004302D54942B3
:1002F00060EB4000B0F5000F13D3B0F1807F06D360
:1003000040084FEA310102F10102FE2A51D2B1F157
:10031000004F40EBC25008BF20F0010040EA03004C
:100320007047490040EB000010F4000FA2F10102F9
:10033000EDD1B0FA80FCACF1080CB2EB0C0200FA83
:100340000CF0AABF00EBC25052421843BCBFD040D1
:100350001843704792F0000F81F4000106BF80F44B
:1003600000000132013BB5E74FEA41037FEA226C0E
:1003700018BF7FEA236C21D092EA030F04D092F0D9
:10038000000F08BF0846704790EA010F1CBF00200D
:10039000704712F07F4F04D1400028BF40F000406A
:1003A000704712F100723CBF00F50000704700F08A
:1003B000004343F0FE4040F4000070477FEA2262B1
:1003C00016BF08467FEA23630146420206BF5FEA82
:1003D000412390EA010F40F4800070474FF0000382
:1003E00004E000BF10F0004348BF40425FEA000C49
:1003F00008BF704743F0964301464FF000001CE0F1
:1004000050EA010208BF70474FF000030AE000BF46
:1004100050EA010208BF704711F0004302D5404284
:1004200061EB41015FEA010C02BF844601460020F6
:1004300043F0B64308BFA3F18053A3F50003BCFA11
:100440008CF2083AA3EBC25310DB01FA02FC6344BE
:1004500000FA02FCC2F12002BCF1004F20FA02F2C5
:1004600043EB020008BF20F00100704702F12002B8
:1004700001FA02FCC2F1200250EA4C0021FA02F219
:1004800043EB020008BF20EADC7070474FF0FF0C1E
:100490001CEAD0521EBF1CEAD15392EA0C0F93EA19
:1004A0000C0F6FD01A4480EA010C400218BF5FEABB
:1004B00041211ED04FF0006343EA501043EA51112E
:1004C000A0FB01310CF00040B1F5000F3EBF490028
:1004D00041EAD3715B0040EA010062F17F02FD2A2C
:1004E0001DD8B3F1004F40EBC25008BF20F001000F
:1004F000704790F0000F0CF0004C08BF49024CEA26
:10050000502040EA51207F3AC2BFD2F1FF0340EAB7
:10051000C250704740F400004FF00003013A5DDC28
:1005200012F1190FDCBF00F000407047C2F1000269
:10053000410021FA02F1C2F1200200FA02FC5FEA56
:10054000310040F1000053EA4C0308BF20EADC70A0
:10055000704792F0000F00F0004C02BF400010F412
:10056000000F013AF9D040EA0C0093F0000F01F0BF
:10057000004C02BF490011F4000F013BF9D041EAE1
:100580000C018FE70CEAD15392EA0C0F18BF93EAE3
:100590000C0F0AD030F0004C18BF31F0004CD8D10D
:1005A00080EA010000F00040704790F0000F17BF94
:1005B00090F0004F084691F0000F91F0004F14D0DA
:1005C00092EA0C0F01D142020FD193EA0C0F03D132
:1005D0004B0218BF084608D180EA010000F0004035
:1005E00040F0FE4040F40000704740F0FE4040F410
:1005F000400070474FF0FF0C1CEAD0521EBF1CEAAF
:10060000D15392EA0C0F93EA0C0F69D0A2EB0302CC
:1006100080EA010C49024FEA402037D04FF0805366
:1006200043EA111143EA10130CF000408B4238BF2B
:100630005B0042F17D024FF4000C8B4224BF5B1A39
:1006400040EA0C00B3EB510F24BFA3EB510340EA87
:100650005C00B3EB910F24BFA3EB910340EA9C0035
:10066000B3EBD10F24BFA3EBD10340EADC001B01A5
:1006700018BF5FEA1C1CE0D1FD2A3FF650AF8B4249
:1006800040EBC25008BF20F0010070470CF0004C56
:100690004CEA50207F32C2BFD2F1FF0340EAC25081
:1006A000704740F400004FF00003013A37E792F042
:1006B000000F00F0004C02BF400010F4000F013AA0
:1006C000F9D040EA0C0093F0000F01F0004C02BF9B
:1006D000490011F4000F013BF9D041EA0C0195E704
:1006E0000CEAD15392EA0C0F08D142027FF47DAF9D
:1006F00093EA0C0F7FF470AF084676E793EA0C0F8D
:1007000004D14B023FF44CAF08466EE730F0004C8A
:1007100018BF31F0004CCAD130F000427FF45CAF1A
:1007200031F000437FF43CAF5FE700BF4FF0FF3C88
:1007300006E000BF4FF0010C02E000BF4FF0010CDB
:100740004DF804CD4FEA40024FEA41037FEA226CA4
:1007500018BF7FEA236C11D001B052EA530C18BFC6
:1007600090EA010F58BFB2EB030088BFC81738BF2B
:100770006FEAE17018BF40F0010070477FEA226C19
:1007800002D15FEA402C05D17FEA236CE4D15FEA15
:10079000412CE1D05DF8040B704700BF8446084649
:1007A0006146FFE70FB5FFF7C9FF002848BF10F10A
:1007B000000F0FBD4DF808EDFFF7F4FF0CBF01204F
:1007C00000205DF808FB00BF4DF808EDFFF7EAFFD9
:1007D00034BF012000205DF808FB00BF4DF808ED94
:1007E000FFF7E0FF94BF012000205DF808FB00BF89
:1007F0004DF808EDFFF7D2FF94BF012000205DF80F
:1008000008FB00BF4DF808EDFFF7C8FF34BF01201B
:1008100000205DF808FB00BF42000ED2B2F1FE4F8F
:100820000BD34FF09E03B3EB126209D44FEA0023BF
:1008300043F0004323FA02F070474FF00000704786
:1008400012F1610F01D1420202D14FF0FF30704727
:100850004FF00000704700BF53B94AB9002908BFE4
:1008600000281CBF4FF0FF314FF0FF3000F072B98D
:10087000ADF1080C6DE904CE00F006F8DDF804E0F7
:10088000DDE9022304B070472DE9F047089E0446D5
:100890008846002B4BD18A42154667D9B2FA82F2BC
:1008A0004AB1C2F1200701FA02F320FA07F7954096
:1008B00047EA030894404FEA154E230CB8FBFEF7B5
:1008C0001FFA85FC0EFB178843EA084307FB0CF16F
:1008D000994209D9EB1807F1FF3080F01B8199424A
:1008E00040F21881023F2B445B1AA4B2B3FBFEF026
:1008F0000EFB103344EA034400FB0CFCA44509D969
:100900002C1900F1FF3380F00781A44540F20481E7
:1009100002382C4440EA0740A4EB0C0400271EB127
:10092000D4400023C6E900433946BDE8F0878B4236
:1009300009D9002E00F0EB800027C6E900013846F7
:100940003946BDE8F087B3FA83F7002F47D18B42D1
:1009500002D3824200F2FA80841A61EB0303012081
:100960009846002EE0D0C6E90048DDE702B9FFDE78
:10097000B2FA82F2002A40F08F80491B4FEA154EEE
:100980001FFA85F80127B1FBFEFC230C0EFB1C119E
:1009900043EA014308FB0CF1994207D9EB180CF12B
:1009A000FF3002D2994200F2CD808446591AA3B298
:1009B000B1FBFEF00EFB101443EA044408FB00F800
:1009C000A04507D92C1900F1FF3302D2A04500F24F
:1009D000B6801846A4EB080440EA0C409FE7C7F134
:1009E000200CBB4022FA0CFE4EEA030E01FA07F47B
:1009F00020FA0CF521FA0CF34FEA1E482543B3FB0D
:100A0000F8F92C0C08FB19331FFA8EFA44EA034359
:100A100009FB0AF49C4202FA07F200FA07F10BD92B
:100A20001EEB030309F1FF3080F087809C4240F207
:100A30008480A9F1020973441B1BADB2B3FBF8F02B
:100A400008FB103345EA034400FB0AFAA24508D923
:100A50001EEB040400F1FF336BD2A24569D90238C2
:100A6000744440EA0940A0FB0289A4EB0A044C4507
:100A7000C2464B4654D351D0002E69D0B1EB0A0583
:100A800064EB030404FA0CFCFD40FC404CEA050551
:100A9000C6E90054002747E7C2F1200320FA03F714
:100AA000954001FA02F021FA03F34FEA154E38435C
:100AB000010CB3FBFEF71FFA85F80EFB173341EA72
:100AC000034107FB08F38B4204FA02F407D96918C3
:100AD00007F1FF3C2FD28B422DD9023F2944CB1A7C
:100AE00081B2B3FBFEF00EFB103341EA034100FB81
:100AF00008F38B4207D9691800F1FF3C17D28B42EB
:100B000015D902382944C91A40EA07473BE7374656
:100B1000304609E70746E7E61846FBE64145ABD213
:100B2000B8EB020A69EB0E0201381346A4E76046EF
:100B3000E9E7184695E76746D1E781467CE7023842
:100B40002C4447E7ACF1020C2B442FE7384608E76A
:100B50003746E9E6704700BF034B1A1803EB8000E5
:100B60004168107A4B681847CC000020064B1A5C8D
:100B700042B9012119541A1803EB80004368107A16
:100B80001968084700207047CC00002030B4054C9D
:100B9000251804EB80004468287AA468A44630BC79
:100BA000604700BFCC00002030B4054C251804EB92
:100BB00080004468287AE468A44630BC604700BFDF
:100BC000CC000020044B10B41C1803EB80004368D9
:100BD000207A1B6910BC1847CC00002001380A4459
:100BE000914200D1704711F8013B00F8013FF7E74F
:100BF0000244904200D1704700F8011BF9E7000061
:100C00001F4A136830B583B1D0F800429C420AD124
:100C10005568D0F808329D4205D1B2F808C0B0F846
:100C20000642A44525D0002400E00124D368F3B196
:100C3000D0F80052AB420AD11569D0F808329D4273
:100C400005D1B2F814C0B0F80652AC4516D074B94C
:100C500002290CBF0020122030BD0C2101FB042210
:100C60005389B3F5807F14BF00201020F4E70020E3
:100C7000F2E700240029F0D01020EDE70124F9E785
:100C8000B0000020254AF0B51368D0F800629E42FB
:100C900009D15568D0F80842A54204D1B0F80672CF
:100CA0001589AF422AD0D468B4420AD11769D0F866
:100CB0000852AF4205D1B2F814C0B0F80672BC4574
:100CC00027D00BB13CBB01230C245C4315191651F2
:100CD0000027D0F80862B0F806026E6028816F81A4
:100CE000A1B90C2101FB032CBCF80A400134A7B2C6
:100CF0000C2101FB0322581C5781F0BD0023002961
:100D0000EFD00C2505FB0326708920B94FF48077BE
:100D1000EEE70123F3E70020EFE700BFB00000207B
:100D2000013801281AD80E490C2202FB001CBCF81D
:100D30000A30B3F5807F07D10022ACF80A200C23DB
:100D400043430020C8507047002BF8D05A1E93B27E
:100D5000ACF80A30002BF2D0002070470220704718
:100D6000B0000020D0F82432D0F800220433490A21
:100D700092F80202B1FBF0F1186830B1814202D35F
:100D8000091A0833F8E7586808447047D0F8102269
:100D900070B501F109032AB3D0F814220024551EBE
:100DA0002E2615F8010F202804F1010409D005288A
:100DB00008BFE520092C04BF1E700133013303F87E
:100DC000010C0B2CEDD1D57A0D72D4690C60567ED6
:100DD00092F818C04CEA06208880D57D927D42EAC0
:100DE0000524CC800021197070BD026810B552B185
:100DF00011460B4611F8014B202C0CD93A2CF8D196
:100E0000511C8B4202D04FF0FF3005E01278302A9F
:100E1000F9D101330360002010BD08B590B1D0F8BE
:100E200000327BB193F8002262B1B3F80612B0F839
:100E30000402814206D193F80102FFF78DFE10F003
:100E4000010000D0092008BDCA7E8B7E032843EA3A
:100E5000022C01BF487D0A7D42EA00224CEA024C86
:100E60006046704770B5D0F82C5204460146012305
:100E70002A4690F80102FFF797FED0B9D4F8203245
:100E8000D4F8182284F80402E81A904201D3002012
:100E900070BD94F80362012EF9D9D4F8181294F8B1
:100EA00001020D4401232A462146FFF77DFE013E43
:100EB000F1E70120ECE790F804320BB1FFF7D2BF65
:100EC00018467047D0F82C328B4270B506460D4656
:100ED00013D0FFF7F0FF044668B92A4601233146D4
:100EE00096F80102FFF752FE00281CBF4FF0FF35B5
:100EF0000124C6F82C52204670BD0024FBE70000F8
:100F000000234FF0FF3210B580F80432C0F82C22D5
:100F10000446FFF7D7FFC0B994F8FF1194F8FEC15B
:100F20004AF655234CEA012E9E4510D1D4F83620BE
:100F3000084B22F07F41994206D0D4F8520020F0AD
:100F40007F44E01A18BF012010BD0320FCE70220F7
:100F5000FAE700BF46415400F0B50023036085B0B6
:100F6000074608461546FFF740FF061EC0F22881D7
:100F7000974850F82640002C00F024813C6094F8FB
:100F8000001271B194F80102FFF7E6FDC70708D41B
:100F9000002D00F0198110F0040000D00A2005B0E7
:100FA000F0BD0022F0B284F8002284F80102FFF7BD
:100FB000DDFDC10700F10A810DB14207EED4002129
:100FC0002046FFF79DFF012840F0E18004F5E3771C
:100FD000002617F8043C03B13B684DF82630013673
:100FE000042E07F11007F4D100275DF82750002DDB
:100FF00000F0C48029462046FFF782FF002840F019
:10100000BE80207BE17A41EA0022B2F5007F40F009
:10101000C18094F810C0E67DA37D84F803C253EA32
:1010200006210CF1FF3708BF616AC4F81812012FBE
:1010300000F2B080667B84F80262002E00F0AA8085
:10104000701E304240F0A680637CA27C43EA0220FE
:101050000307A4F8080240F09D80277D94F813E070
:10106000A27B5EEA0723E77B08BF236A52EA0722D6
:1010700000F0908001FB0CFC02EB10176744BB42B0
:10108000C0F08880DB1BB3FBF6F3002B00F08280FE
:1010900040F6F576B34294BF012602264FF6F57E60
:1010A000734588BF03262A4402332F44032EC4F815
:1010B0001432C4F81C52C4F82022C4F828726DD12E
:1010C000002867D1E26AC4F824229B0003F2FF17CC
:1010D000B1EB572F5ED34FF0FF314FF0800C032E52
:1010E000C4F81012C4F80C1284F805C22DD194F87B
:1010F000310094F8303043EA0022012A25D1691CDE
:101100002046FFF7DFFE00BB94F8FF5194F8FE7114
:1011100084F8050247EA05214AF65520814214D198
:1011200022682C4B9A4210D103F1FF5ED4F8E451AF
:101130000EF500572037BD4201BFD4F8E871C4F85E
:101140001072D4F8EC71C4F80C72234B84F800626E
:10115000224E1A683188DD68944208BF002201F1EE
:10116000010188B208BF1A60AC423080A4F80602C0
:101170004FF000007FF413AFD86010E70220013772
:10118000042F7FF432AF032804D1012007E703289E
:10119000FBD008B10D2002E7054632E70028F9D060
:1011A000022E4FEA430018BFC018624418BF03F074
:1011B0000103C4F824220CBF034603EB500385E768
:1011C0000B20ECE60C20EAE62846E8E60320E6E6FB
:1011D000AC00002052526141B0000020C800002045
:1011E00038B50446FFF767FE054600284BD194F852
:1011F0000032032B3ED194F80532012B3AD101463F
:101200004FF400722046FFF7F3FC1F48206000F106
:10121000FF514AF65522D4F81002A4F8FE2101F538
:1012200000522032C0F3072C010CC4F8E42184F8EA
:10123000E801020ED4F80C0284F8EB21020E84F8C7
:10124000EF21D4F81C2284F8E9C184F8EA11C0F334
:10125000072C010C013284F8EC0184F8EE1184F8BB
:10126000EDC1C4F82C22214694F80102FFF79CFC42
:1012700084F805520022114694F80102FFF7A2FCFF
:10128000003018BF012038BD52526141D0F81432ED
:1012900002399A1E8A4283BF90F80222D0F82802AF
:1012A00001FB0200002070470129F8B506460D46F3
:1012B00059D9D0F814328B4255D990F8001202292E
:1012C00027D0032936D001294DD1D0F8202205EBB3
:1012D000550402EB5421FFF7F5FD10B14FF0FF303C
:1012E000F8BDC4F30800D6F82032671C03EB572181
:1012F000345C3046FFF7E6FD0028EFD1C7F3080164
:10130000EB07765C44EA06204CBF0009C0F30B00F3
:10131000E6E7D0F8204204EB1521FFF7D3FD0028C3
:10132000DCD16B0003F4FF703118365C4D7846EA6F
:101330000520D5E7D0F8202202EBD511FFF7C2FD3A
:101340000028CBD1AD0005F4FE77F419F65DA07846
:10135000E3786278010441EA0365354345EA0227F0
:1013600027F07040BCE70120BAE7F8B5D0F8084292
:101370000546012C0E46A5F8061201D10220F8BD43
:10138000D0F80032D3F81422A242F7D9F4B993F876
:101390000012032902D1D3F82402C0B9B3F808021D
:1013A000B042EBD9D3F82402C5F80C420028E5D0AE
:1013B000D5F8004206F00F0700EB161104EB4713B7
:1013C000C5F81012C5F814320020D8E7204693F86B
:1013D000027204463F01BE42D5F80002214602D205
:1013E000FFF754FFE0E7FFF75FFF431C044609D017
:1013F0000128C3D9D5F80032D3F814228242BDD9CE
:10140000F61BE8E70120BAE701292DE9F04105467E
:101410000C4616466FD9D0F814328B426BD990F82F
:10142000001202293AD003294BD0012963D1D0F808
:10143000202204EB540702EB5721FFF743FD20BBAA
:10144000C7F3080014F001041FBF2B5C03F00F0169
:10145000330103F0F00314BF0B43F3B22B54D5F860
:10146000202207F10108012785F8047202EB5821B8
:101470002846FFF727FD40B9C8F308033CB1C6F37F
:101480000711E954012485F80442BDE8F081EC5CC1
:10149000C6F3032624F00F013143F2E7D0F82012FF
:1014A00001EB1421FFF70EFD0028EED1620002F4DB
:1014B000FF7C05F80C60AC44C6F307268CF801608D
:1014C000E0E7D0F8207207EBD411FFF7FBFC00280F
:1014D000DBD1A20002F4FE742919CB781F0607F0B5
:1014E000704216432E55330CC6F30724370E4C704A
:1014F0008B70CF70C6E70220C7E7F8B505460F46E8
:1015000089B9D0F80C62FEB1D0F81402864228BF27
:1015100001263446D5F814120134A14217D8012E01
:1015200014D8002408E0FFF7BFFE012804463BD989
:10153000601C03D14FF0FF342046F8BDD5F81432BB
:10154000A342F9D83E46E4E70126E2E70224214619
:101550002846FFF7A9FE30B1411CEBD0012823D06B
:10156000B442D7D1DDE76FF0704221462846FFF73D
:101570004BFFB8B97FB9D5F81072C5F80C427A1C88
:10158000DAD095F805C27A1E4CF0010EC5F810228B
:1015900085F805E2D0E7224639462846FFF734FFB2
:1015A0000028E8D00128C5D00124C5E72DE9F8437B
:1015B000B0F806620136B3B20446894613B9042076
:1015C000BDE8F883D0F810120029F8D016F00F0803
:1015D0000BD10131D0F80002C4F81012D4F80C126B
:1015E00069B9B0F80812B142E9D9D4F80022A4F8D8
:1015F000066202EB4815C4F814520020E0E790F8A8
:1016000002727A1E12EA1617EFD1FFF74DFE01287B
:10161000054601D80220D3E7421C01D10120CFE7C3
:10162000D4F80002D0F81432AB422FD8B9F1000F31
:10163000C5D0D4F80C12FFF760FF054600283ED055
:101640000128E7D0431CE9D0D4F80002FFF733FCAF
:1016500001460028E2D14FF40072D4F80002FFF7EF
:10166000C7FAD4F8009229464846FFF70FFEC9F89A
:101670002C024FF00109D4F8000290F80212B9428E
:101680000ED8D0F82C22D71BC0F82C72C4F80C52FC
:101690002946D4F80002FFF7F9FDC4F81002A4E7C8
:1016A00080F80492FFF7DEFB0028B7D1D4F80002DF
:1016B000D0F82C320133C0F82C320137DBE7072099
:1016C0007EE700002DE9F8430B782F2B04460D46EA
:1016D00001D05C2B00D101350026C4F808622878BF
:1016E0001F2835D95D4F29782F29A84605F1010516
:1016F000F9D05C29F7D0D4F818620B2220213046AB
:10170000FFF776FA4FF0000C08F1FF39E6460821A2
:10171000624619F8013F202B0EF1010E27D92F2B1D
:1017200025D05C2B23D02E2B00F0848061450DD971
:10173000180648BF803B4A4D44BFFB5C42F00302A1
:1017400015F8010F00287CD08342F9D1062005E06E
:1017500031462046FFF709FEC4F81462BDE8F8835D
:1017600042F0020206F80C300CF1010CD1E7212BFB
:1017700008EB0E0534BF04230023BCF1000FE5D0B5
:101780003078E52804BF05203070082904BF920096
:10179000D2B202F00301012902F00C0208BF43F0AB
:1017A0001003042A08BF43F00803F3720021204607
:1017B000FFF7DBFD08BBD4F81012D4F80002FFF7E6
:1017C00081FBD0B9D4F814221678AEB192F80BE0B0
:1017D0005FEA0E710BD4D4F8183203F10B08984568
:1017E0000BD012F8019B13F801CBE145F7D0002193
:1017F0002046FFF7DBFEDDE70420D4F81812CA7A92
:1018000030B10428AAD112F0040F08BF0520A5E7C3
:101810005207A3D4D4F81412C87AC30608D5D4F852
:10182000006296F80002FFF70FFBC4F808025AE7BF
:10183000052093E7082989D193008C46DAB20B2161
:1018400067E7A3F14105192D8AD9A3F16100192891
:101850009EBF203B42F00102DBB283E748620008F2
:10186000C762000838B500210546FFF77EFD70BB52
:10187000D5F81012D5F80002FFF724FB38BBD5F8D5
:1018800014321878E5281BD1D5F81012D5F80002CB
:10189000FFF718FB044688B901462022D5F8140248
:1018A000FFF7A6F90B22D5F81812D5F81402FFF7A6
:1018B00095F9D5F80012012281F80422204638BD9E
:1018C0000028E1D001212846FFF770FECFE7042869
:1018D00014BF04460724F1E7012970B504460D46FC
:1018E00001D8022070BDD0F814328B42F9D9D4F857
:1018F0001402854205D229462046FFF7D5FC06464C
:1019000008B90020EEE70128EBD0411C15D00022D9
:1019100029462046FFF778FD0028E3D1D4F81012BD
:101920004A1C08D094F80522013142F00105C4F8A0
:10193000101284F805523546D9E70120D2E700009D
:101940007FB5CDE9001004A8164640F8041DFFF746
:101950004CFA051E21DB134951F8254064B1124BA6
:101960001A68D868944204BF00221A600022844298
:1019700008BFDA6084F80022019810B1002480F8D2
:10198000004241F8250030B1012E08D100226946FD
:1019900001A8FFF7E1FA04B070BD0B20FBE70020BF
:1019A000F9E700BFAC000020B00000202DE9F043B3
:1019B000ADF50F7D904601910546002800F0A78007
:1019C0000023C0F8003202F01E0201A986A8FFF72A
:1019D000C3FA0646002840F0958003A88C90019930
:1019E00006A8FFF76FFE08F01F078B9C48B9002C74
:1019F0005BD017F01E0F14BF0121002106A8FFF7CE
:101A0000FFF818F01C0F5CD0002850D0042808D133
:101A100052490B6813B1C86800287AD106A8FFF7AD
:101A200021FF47F0080700283DD18B9C3B0752D58A
:101A300000F0EAFC4FF00008030EC0F30722010C8F
:101A40002174637484F80B8084F81C8084F81D80F2
:101A500084F81E8084F81F80A073E2738698214664
:101A600090F80002FFF7F0F984F81A8084F81B80E0
:101A700084F8148084F81580869B4FF0010C83F85D
:101A800004C2804638B301461846D3F82C92FFF7BB
:101A900023FF40B9869808F1FF32C0F80C2249466E
:101AA000FFF710FAB8B106462CE00620A9E794F833
:101AB0000B9019F0110F30D118F0040FB6D0082692
:101AC00020E00028EFD1E27AD00624D418F0020FEB
:101AD00001D0D20721D43B07869848BF47F02007A2
:101AE000D0F82C32C5F81C3217F0FE0FC5F8204292
:101AF00014BF0121002106A8FFF7C4F8C5F8280289
:101B000068B9022630460DF50F7DBDE8F083092641
:101B1000F8E71226F6E70426F4E70726F2E785F849
:101B20000672DDF81882002785F8077298F800021F
:101B30002146FFF789F9C5F81002E469B8F80612E2
:101B4000C5F80C42C5F80872C5F81872C5F82472B9
:101B5000C5F80082A5F80412D4E700BFB000002049
:101B60002DE9F74F9B460023CBF800300446894609
:101B70001546FFF752F9064668BB94F8070200289D
:101B800040F0AF8094F80612C80740F1AC80D4F85A
:101B90000C22D4F80872D71BAF4228BF2F46D7B10A
:101BA000D4F80812C1F30805002D40F08B80D4F85A
:101BB000000290F8028208F1FF3A0AEA512C1CF068
:101BC000FF0301931DD151B9D4F81002012812D896
:101BD000022684F80762304603B0BDE8F08FD4F8DF
:101BE00024221AB12046FFF7BDF8EFE7D4F814120B
:101BF000FFF75AFBEAE7411C01D10126E9E7C4F8E7
:101C00001402D4F800A2D4F814125046FFF73EFB99
:101C10000028DDD001997D0A00EB01082FD0019A40
:101C20009AF802129AF801022A448A4284BF019A61
:101C30008D1A2B4642464946FEF7A8FF0028DCD104
:101C400094F8060242060CD5D4F81832A3EB080A21
:101C5000554506D94FF40072214609EB4A20FEF79C
:101C6000BDFF6D02D4F80812DBF8002029442A4495
:101C7000C4F80812A944CBF800207F1B8FE7D4F8E2
:101C8000182290451CD094F8060243060DD5012376
:101C900021469AF80102FEF787FF0028ADD194F89B
:101CA00006E22EF0400C84F806C2D4F8005201235C
:101CB0004246214695F80102FEF768FF00289CD1B4
:101CC000C4F81882D4F80832C3F30801C1F50075CE
:101CD000BD4228BF3D462A4621444846FEF77EFFC6
:101CE000C0E7064677E7072675E770B50446FFF7B5
:101CF00094F8002859D194F806329A0655D55B0617
:101D000011D5D4F80002D4F8182290F8010201236A
:101D10002146FEF749FF002846D194F8061221F02B
:101D2000400284F80622D4F81C12D4F80002FFF70F
:101D3000C9F80646C8BBD4F8205295F80BC04CF041
:101D40002003EB72D4F80C022877B4F80C120A0ABC
:101D50006A77B4F80E32AB7794F80F02E877D4F8CC
:101D60001012A9760B0CC1F30722180AEA762B751C
:101D7000687500F049FBC0F30721020C030EA8753B
:101D8000E9752A766B76AE74EE7494F80662D4F830
:101D9000000226F0200584F80652012480F804424F
:101DA000BDE87040FFF71CBA012070BD10B50446B5
:101DB000FFF79BFF50B92046FFF72FF830B9D4F852
:101DC0002802FEF7ADFF08B9C4F8000210BD30B517
:101DD000ADF50F7D0D460190002201A986A8FFF701
:101DE000BBF8044670B903AB01998C9306A8FFF7C2
:101DF00069FC044630B98B9840B11DB1294606A84C
:101E0000FEF7C4FF20460DF50F7D30BD0624F9E72F
:101E100030B5114B5C7A012C1BD85D7A5FFA85FCDA
:101E20005D7A002403F80C4003EB850CCCF8040029
:101E3000587A184402725A7AD5B2681CC2B2303548
:101E40005A720D703A232F254B708D70CC7020463E
:101E500030BD0120FCE700BFCC0000200022FFF7CE
:101E6000D7BFF8B507462A200D4616461C4600F097
:101E70009DFC380A00F0B0FCF8B200F0ADFC300A6E
:101E800000F0AAFCF0B200F0A7FC2B2000F08EFCC2
:101E9000280A00F0A1FCE8B200F09EFC200A00F045
:101EA0009BFCE0B2BDE8F84000F096BC014B188006
:101EB000704700BF00000020002138B540F23F12FB
:101EC000EF2305460846FFF7CCFF2C2000F06EFC00
:101ED0004FF49634284600F07FFC013CFAD138BD1F
:101EE00030B5044C01252570034C2080A280618010
:101EF000E38030BDDA000020DC00002010B5124B7A
:101F000014461A78012A10D1104BB3F900C0844549
:101F100019DCB3F90420824215DDB3F902C08C4507
:101F200011DCB3F906308B420DDD82B28BB2104664
:101F30001946FFF796FF2C2000F038FC2046BDE83C
:101F4000104000F049BC10BDDA000020DC00002089
:101F50002DE9F84316461F46013A013B9BB292B267
:101F600004468846BDF82090FFF77BFF2C2000F048
:101F70001DFCB4420BD3BDE8F883484600F02CFCAE
:101F80000135ADB2BD42F8D30134A4B2F1E7454604
:101F9000F8E7000070B51546013A0B4692B20446C8
:101FA000FFF75FFF2C2000F001FC054EAC4200D390
:101FB00070BD3088013400F00FFCA4B2F6E700BF1A
:101FC00000000020531E70B59BB2154602460C4619
:101FD000FFF747FF2C2000F0E9FB054EAC4200D391
:101FE00070BD3088013400F0F7FBA4B2F6E700BF03
:101FF00000000020F8B51D460E4607461446FFF7C0
:10200000C9FF691E2246384689B2FFF7C3FF2A4638
:1020100031463846FFF7D6FF601E2A46314680B269
:10202000BDE8F840FFF7CEBF2DE9F04F89B000AF13
:1020300007F11005F860796093461C4610220021D4
:10204000284601F085FB002C59D02378002B56D070
:102050002046294601F0B2FA3A7E787E12FB00F162
:10206000CA10D61DE846F408A8EBC409CD46F969A4
:10207000C7F808D00024684601F01AFBA0462146A4
:102080007B68787EE6B2E218B0420FFA82F936D960
:102090003B7E0733DE10002204E0BB6813F80AC061
:1020A0004CEA0828D3B28818B3425FFA80FA02F1EA
:1020B0000102F2DB002697F818E05FFA86FCF4458F
:1020C00002D301345146DBE70EF1FF32012000FA62
:1020D00002F313EA080F0BD00E48DC4402880FFA13
:1020E0008CF14846FFF70AFF4FEA48080136E2E75D
:1020F00009490A78012AF7D1DC440848EEE795E857
:102100000F00FC68243784E80F002046BD46BDE878
:10211000F08F00BF0000002002000020D800002047
:102120007FB504460E4615462B780BB904B070BD3A
:1021300021462B4668463246FFF776FF9DF8090098
:102140009DF80010044424B20D44EDE70AB1FFF7F6
:10215000E7BF704708B5322002F0A2FAFE2000F077
:1021600025FBEF2000F022FB3A2000F01FFB0520AA
:1021700000F032FB362000F019FB642000F02CFB4D
:10218000E82000F013FB122000F026FB222000F0D4
:1021900023FBE32000F00AFB012000F01DFB0420DC
:1021A00000F01AFBA52000F001FB402000F014FB1A
:1021B000402000F011FBA42000F0F8FA442000F0C9
:1021C0000BFB442000F008FBAB2000F0EFFA0820E6
:1021D00000F002FBAA2000F0E9FA882000F0FCFAE7
:1021E000882000F0F9FAAE2000F0E0FA0B2000F0B1
:1021F000F3FAAC2000F0DAFA002000F0EDFAAF209C
:1022000000F0D4FA772000F0E7FAAD2000F0CEFA23
:10221000772000F0E1FA2A2000F0C8FA002000F050
:10222000DBFA002000F0D8FA002000F0D5FAEF2009
:1022300000F0D2FA2B2000F0B9FA002000F0CCFA1E
:10224000002000F0C9FA012000F0C6FA3F2000F09B
:10225000C3FA2C2000F0AAFAF02000F0A7FA02201E
:1022600000F0BAFA002000F0B7FA002000F0B4FA4B
:10227000012000F0B1FA012000F0AEFA072000F0D2
:10228000ABFAF12000F092FA012000F0A5FA032049
:1022900000F0A2FA002000F09FFA362000F09CFA2D
:1022A000292000F099FA132000F096FAF22000F0AD
:1022B0007DFA082000F090FA062000F08DFA242024
:1022C00000F08AFA032000F087FA052000F084FA73
:1022D000342000F081FAF32000F068FA162000F0B4
:1022E0007BFA0C2000F078FA5A2000F075FA0420EE
:1022F00000F072FA032000F06FFA692000F06CFA27
:10230000F42000F053FA0D2000F066FA182000F0D7
:1023100063FA152000F060FA052000F05DFA052050
:1023200000F05AFA002000F057FAF52000F03EFACB
:102330000D2000F051FA182000F04EFA172000F09E
:102340004BFA352000F048FA392000F045FA002019
:1023500000F042FA112000F029FA962002F0A0F9CC
:10236000292000F023FA2C20BDE8084000F01EBA16
:1023700008B5362000F01AFAA420BDE8084000F0A5
:102380002BBA08B500F086FABDE80840FFF7E2BEB8
:1023900010B50122044660B94FF400710A4802F0FA
:1023A00039FD0A4822464FF40061BDE8104002F0B2
:1023B00031BD4FF40061054802F02CFD00224FF4BE
:1023C00000710148F1E700BF00040240000802402C
:1023D00008B501224FF40061054802F01BFD0122FF
:1023E0004FF400710348BDE8084002F013BD00BF80
:1023F000000802400004024001490248FFF72EBDD8
:102400003C030020080000200020704770B50446FF
:1024100086B00D460026AC4202D9002006B070BD41
:10242000694601A8009602F033FB0028F6D104F5B6
:102430007A74F0E72DE9F34102AF002347F8043D39
:10244000DFF834800B6005460E46102429463E22F4
:102450003B464046FFF784FB019932680A440D442D
:10246000326028B93E2903D1013CA4B2002CEDD141
:1024700002B0BDE8F08100BFE8000020F8B50D46CD
:1024800016460C46471A631B9E4201D8002008E0FE
:102490003919002334F8022B012002F04FFA0028EA
:1024A000F1D0F8BD37B5A0EB002404F57F40FF3034
:1024B00085B22846FFF7FAFC012100950846F02373
:1024C0000A22FFF745FD04F57E43BE3399B2009121
:1024D000012108460A234FF4A072FFF739FD04F5E5
:1024E0007D42E83204F57C4490B23C340090F02305
:1024F0004FF4A07201214FF49B70A5B2FFF728FDA5
:102500000095F0234FF4A072E6210120FFF720FD93
:1025100003B030BD2DE9F0471D46089B642BA8BFD2
:10252000642323EAE3780C460021EF239146C8EBAD
:10253000083740F23F1206460846FFF7D1FCF84341
:1025400087B209F1FF30FDF74DFF1D49FEF752F844
:1025500082464046FDF746FF01465046FDF796FF8E
:10256000A4B225448046B6B24FF47840ADB2FFF72E
:102570009DFC214630462B461FFA89F2FFF73AFDB3
:102580000536691F0534A9F105001FFA86FAA6B2BF
:102590008CB2FDF727FF4146FEF734F958B14046AB
:1025A000FEF73AF90897234682B231465046BDE815
:1025B000F047FFF7CDBC03494046FDF75DFEEFE76E
:1025C0000000C8420000A0402DE9F74F384C2146DA
:1025D0000546FFF7FCFBA146002861D101222946F0
:1025E0003448FFF7E3F900285CD1334E334801F05B
:1025F0005FF9356802F05CF9B24618B1022003B009
:10260000BDE8F08F2E4801F053F93068216801448D
:10261000FFF7FCFE18B12B4801F04AF9EEE72A4A11
:102620002A4E2B4FDFF8B8802D215020FFF78EFD6A
:1026300026493846FFF7FEFE326839462846FFF73E
:102640001DFF0028DAD13368DAF80000D9F800401D
:102650001D44291A4FF0640B0BFB01F2404629463A
:10266000B2FBF4F401F024F921461A4801F020F9F4
:102670001423184600944FF496725946FFF74AFF08
:102680002046FFF70FFF3468002CD1D10948FFF72F
:102690008DFB02F01FF9104801F07EF92046AEE7ED
:1026A0000320ACE70D4801F003F90120A7E700BFC4
:1026B00014030020E800002004000020D762000876
:1026C000E7620008F662000804630008E4000020E6
:1026D0004803002024630008346300084B630008AB
:1026E00014630008F0B58BB02E4B002400941A6BD5
:1026F00042F001001863196B01F001050095009A82
:1027000001941E6B46F002071F631A6B02F0020071
:102710000190019A0294196B41F004051D631E6B30
:1027200006F004070297029A03941A6B42F008001D
:102730001863196B01F008050395039A04941E6B46
:10274000194D46F010071F631B6B03F01002049233
:10275000284622464FF40061049B012602F05AFBF2
:102760004FF40060CDE90506022705A92846A5F526
:102770008065089702F0DAF9224628464FF4007186
:1027800002F048FB4FF4007405A92846CDE9054640
:10279000089702F0CBF932462146284602F03AFB70
:1027A0000BB0F0BD0038024000080240084B094958
:1027B00000229A619A614861A3F500609A614FF422
:1027C00080434FF480728361C0F81824704700BFC3
:1027D000000C024000100240094B0A494FF400521D
:1027E0009A6100229A614861A3F500609A614FF4F2
:1027F00080434FF480728361C0F81824704700BF93
:10280000000C024000100240F0B587B040F22323D4
:10281000012402251B4E1C48049501A9CDE9013471
:1028200002F084F945F61000CDE9010401A9304613
:10283000164F049502F07AF99021CDE9011438463B
:1028400001A9049502F072F94FF0000C202201A9B1
:102850003846CDE9012C049502F068F94FF6FF7374
:1028600001A90B4801930294049502F05FF92246F6
:102870004FF48041304602F0CDFA4FF40044B46189
:1028800007B0F0BD000C0240000402400008024006
:1028900000100240FFF7B8BF80B5012200AF184911
:1028A0000020FFF74DF8174800F0BEF9164803F076
:1028B0001DF9164B1A6B22F001001863196B21F0F9
:1028C00002021A63186B20F0040119631A6B22F0DC
:1028D00008001863196B21F010021A6301F086FEDC
:1028E0000B4B0C4A0C4900201860C3F8F81C136805
:1028F000186880F308885968BD46BDE880400847DD
:102900003C03002060090020100A0020003802402B
:1029100010E000E00400002000C0000870B50A4D7F
:10292000064600240821284603F0C8F91E2001F0BD
:10293000B7FE0821284603F0F7F90134962001F08C
:10294000AFFEA642EED170BD100A002082B0019009
:10295000019802B001F0A4BE70B598B00024294BD4
:1029600001941A6C284E42F080501864196C01F0E2
:1029700080550195019B0294336843F48042326094
:10298000306800F48041029101254FF480364FF009
:10299000A80E4FF4800CCDE90C56029B02250723AC
:1029A00004260CA8CDE9146E1793CDE9125C169598
:1029B00002F036FA4FF4A0504FF480510F22CDE9C7
:1029C0000A01052107A8CDE90725099402F0D8FBE3
:1029D000039503A84FF40075069502F08FFC02F0F2
:1029E00067FC4FF47A7CB0FBFCF001F0CDFE304682
:1029F00001F0E0FE224621464FF0FF3001F076FE66
:102A000018B070BD003802400070004070B501F091
:102A100027FEFFF7A1FFFFF765FE00F02DFDFFF792
:102A2000EBFC00F0A1F800F061FD0022114625202A
:102A300001F05CFE252001F08DFE002211462320CE
:102A400001F054FE232001F085FEFFF7D5FC32484B
:102A500000F02EFF3149324800F02AFF3149324858
:102A600000F026FF3149324800F022FF0120FFF735
:102A700055FF304800F01CFF2F49304800F018FF88
:102A800001222F492F48FEF75BFF0446FFF779FC30
:102A90000120FFF76DFC00F0FDFD0020FFF70CFAB0
:102AA0004FF4FC60FFF702FA274A1E216E20FFF761
:102AB0004DFB4CBB254800F06FFF01222049214807
:102AC000FEF73EFF40B91C48FFF77EFD20B903200A
:102AD000FFF724FFFFF7E0FE1D4E1E4D1E4CFFF7D3
:102AE000DBFE4FF44041304600F0E2FE284600F0A5
:102AF000DFFE204600F0DCFE0520FFF70FFF41F26D
:102B0000883001F0CDFDEAE72146144800F0D0FE00
:102B1000134800F0CDFED0E764630008746300083A
:102B2000786300088F630008A663000839D2885EC6
:102B3000BA630008CB630008E4630008F36300088D
:102B40003C030020300700201064000818640008CF
:102B5000606400087F640008986400082E64000820
:102B60004B640008704700000F48104A08B54FF446
:102B70008273C0E900234FF4007100234FF0200C52
:102B80000A22C0E90233C0E90433C0E9061CC0E9E7
:102B900008338362C26202F0A1FC18B1BDE80840AC
:102BA000FFF7E0BF08BD00BF600900200030014012
:102BB00010B5044688B01422002103A800F0C8FD17
:102BC0002268174B9A4228D103F5843000240194DF
:102BD000416C41F480524264436C03F48051019192
:102BE000019A0294026B42F001030363006B00F050
:102BF0000101029102224FF0A00C03A90948029B97
:102C00000692CDE903C201F091FF402303A90548D4
:102C10000594CDE9033401F089FF08B010BD00BF71
:102C2000003001400000024008B50268084B9A429B
:102C30000DD10848416C21F480524264E0210648DD
:102C400002F052F82320BDE8084001F08FBD08BD16
:102C50000030014000380240000002400F48104A96
:102C600008B54FF48273C0E90023022100234FF01E
:102C7000010C4FF4007E0A22C0E90233C0E9041CB3
:102C8000C0E906E3C0E908338362C26202F026FCB1
:102C900018B1BDE80840FFF765BF08BDB8090020BE
:102CA0000030014010B5044688B01422002103A86A
:102CB00000F04EFD2268174B9A4228D103F584306C
:102CC00000240194416C41F480524264436C03F44B
:102CD00080510191019A0294026B42F00103036357
:102CE000006B00F00101029102224FF0A00C03A939
:102CF0000948029B0692CDE903C201F017FF402369
:102D000003A905480594CDE9033401F00FFF08B08D
:102D100010BD00BF00300140000002407FB500231D
:102D2000ADF80E1005930A4802F05DFE0128034637
:102D3000F9D141F2883200920DF10E0105AA044842
:102D400002F0D8FCBDF8140007B05DF804FB00BF2A
:102D5000B809002018B9034B1878C0B27047012099
:102D6000704700BF1C00002007B58DF80700084819
:102D700002F039FE01280246F9D141F288330DF103
:102D80000701034802F0ECFB03B05DF804FB00BF51
:102D9000600900201FB5FF2300208DF80E308DF84C
:102DA0000F000A4802F01FFE01280346F9D141F244
:102DB000883200920DF10E010DF10F02034802F06E
:102DC00099FC9DF80F0005B05DF804FB6009002038
:102DD00013B5FFF7FDFA0A24FF20013CFFF7C4FFFB
:102DE00014F0FF04F8D12046FFF7D2FA40234FF445
:102DF00015400093ADF804001DF804000134FFF7FE
:102E0000B3FF062CF8D14FF40054FFF7C3FF01289D
:102E100001D0013CF9D1FFF7DBFAFF20FFF7A4FF57
:102E2000024901220A7002B010BD00BF2D0300202C
:102E300038B5FFF7AFFF40F2F514FFF7ABFFFF28FF
:102E4000054606D0013C0120A4B2FFF77FFD002C0F
:102E5000F3D1284638BD38B504460D46FFF7E8FFE4
:102E6000FF2828D12046FFF77FFF280EFFF77CFFC1
:102E7000C5F30740FFF778FFC5F30720FFF774FF9E
:102E8000E8B2FFF771FF402C13D0482C14BF00208C
:102E90008720FFF769FF4C2C01D1FFF77BFF0A2445
:102EA000FFF778FF030603D5611E11F0FF04F7D189
:102EB00038BD9520EDE7FF20FAE738B505460C460A
:102EC000FFF7B6FFFF282DD12046FFF74DFFFD2C61
:102ED00026D0AC1C05F2022514F8020CFFF744FFC3
:102EE000023414F8030CFFF73FFFAC42F4D1FFF7B4
:102EF00051FFFFF74FFF4125FFF74CFF00F01F0385
:102F0000052B044601D0013DF6D1FFF743FF002811
:102F1000FBD004F01F00411F4A4242EB010038BDC4
:102F20000024F6E70020FAE770B505460E46652452
:102F3000FFF730FFFF2808D10120013CFFF706FD15
:102F400014F0FF04F4D1002070BDFE28FBD102363E
:102F5000AC1C3544FFF71EFF04F8020CFFF71AFF04
:102F6000023404F8030CA542F4D1FFF713FFFFF776
:102F700011FF0120E8E7000073B5002840F0A280AF
:102F8000514B1C7814F002041E4603D01E78F0B298
:102F900002B070BDFFF71CFF2046FFF7F9F921468C
:102FA0004020FFF758FF012805462BD14FF4D5717B
:102FB0004820FFF750FF01284CD101ADFFF7EAFE92
:102FC00028550134042CF9D19DF80620012A19D185
:102FD0009DF80730AA2B15D14FF47A740021772081
:102FE000FFF739FF01280FD90120FFF7AFFC601E62
:102FF00084B24FF6FF718C42F0D100217A20FFF7A6
:103000002AFF58B1002517E04FF080416920FFF7F3
:1030100022FF0028E8D1002CF4D0EEE70446FFF7A9
:10302000B9FE28550134042CF9D19DF8042012F082
:10303000400F14BF06250225244B1D70FFF7C8F969
:10304000FFF7A8FE002D39D0357805F0FE0131706C
:1030500036789CE721467720FFF7FDFE012806D849
:1030600021466920FFF7F7FE012898BF02254FF49B
:103070007A74022D4FF000011ED17720FFF7EBFE8E
:10308000012810D90120FFF761FC601E84B24FF6C1
:10309000FF718C42EDD14FF400715020FFF7DBFE41
:1030A0000028AFD1C8E700216920FFF7D4FE00282F
:1030B000E8D1002CA6D0EEE74120F6E70448012134
:1030C0000570C4E7012063E71C0000202C030020EA
:1030D0002D03002070B50D4616461C4600283FD132
:1030E000002B3DD01F4B1978CA071DD41E4802780B
:1030F00053071FD50020FFF74BF9012C31461BD198
:103100005120FFF7A8FE38B94FF400712846FFF7A9
:103110000BFFB0FA80F35C09FFF75AF9FFF73AFEAC
:10312000201C18BF012070BDFFF726FF0028DDD04E
:103130000320F8E77602DDE75220FFF78CFE002837
:10314000EAD14FF400712846FFF7EEFE18B1013CBA
:1031500005F50075F5D100214C20FFF77CFEDBE77B
:103160000420E0E71C0000202C030020F8B50D46E9
:1031700016461C46002851D1002B4FD0284F3A78D4
:10318000D30704D43B78590707D5022023E0FFF783
:10319000F3FE0028F6D003201DE0224F38784207C6
:1031A0004FF0000058BF7602FFF7F2F8012C13D160
:1031B00031465820FFF74FFE70BBFE212846FFF72F
:1031C0007CFEB0FA80F67409FFF702F9FFF7E2FD22
:1031D000201C18BF0120F8BD39788B0707D50021C6
:1031E0007720FFF738FE21465720FFF734FE31469F
:1031F0005920FFF730FE0028E6D1FC212846FFF7D2
:103200005CFE18B1013C05F50075F6D1FD210020EA
:10321000FFF753FE0028D7D10124D5E70420DAE7D1
:103220001C0000202C0300207FB50C4615460646E6
:1032300038B9052919D1107801280FD003D30228F5
:103240000FD0042407E04B4D2C7824B14A492E704E
:1032500001240C703446204604B070BDFFF7B8FD61
:10326000F8E7444A13786B70F4E7434B1978CB07BF
:103270000DD40020FFF78CF80D2C78D8DFE804F08F
:10328000510D4C7777777777777777586669FFF7BF
:1032900073FE0028EDD00324DDE700214920FFF76D
:1032A000DAFD044628B10124FFF792F8FFF772FD1A
:1032B000D1E710216846FFF737FE0028F3D09DF8CC
:1032C00000109DF809609DF808308809012806D192
:1032D000013606EB032399B28E022E60E4E79DF8D7
:1032E00007C09DF805009A099DF8063002EB8C0294
:1032F00099029DF80A3001F4406E00F00F0C013283
:10330000760072440CEBD31106F0060E8E44AEF13B
:10331000070082402A60C7E74FF400722A80002429
:10332000C2E7FFF785FDB0F1FF0418BF0124BBE73A
:1033300000214920FFF78FFD0028B4D11021284635
:10334000FFF7F2FDB0FA80F04409ADE700214A2012
:10335000F0E700217A20FFF77EFD0028A3D12C1D85
:10336000FFF718FD05F8010BAC42F9D1D7E70424AB
:103370009AE700BF2D0300201C00002070B50E4608
:1033800015460C46A31B9D4201DC284670BDAFF3D9
:10339000008004F8010BF5E770B50E4615460C46A3
:1033A000A31B9D4201DC284670BD14F8010B00F000
:1033B000F5F8F5E708B50A4B1968024609B9094856
:1033C00018601868EC460244624506D900F096F988
:1033D0000C2202604FF0FF3008BD1A60FCE700BF0E
:1033E00030030020B40A00204FF0FF3070474FF444
:1033F00000534B6000207047012070470020704749
:103400000368B3F1804F82B00BD1074900200190CF
:103410000A6C42F001030B64086C00F00101019199
:10342000019B02B0704700BF0038024010B504464F
:1034300086B01422002101A800F08AF92368B3F1B4
:10344000804F13D10A49002000900A6B42F001041A
:103450000C630B6B022203F0010004210090CDE904
:1034600001120448009B01A901F060FB06B010BDE9
:10347000003802400000024010B500248AB0214606
:103480001C2203A8CDE9014400F062F916484FF070
:10349000804345F6B471C0E900348460C0E9031488
:1034A00002F088FB08B1FFF75DFB6020CDE9010465
:1034B00001A90D4802F082FC08B1FFF753FB30224E
:1034C00001240023CDE9032403A90822064805931B
:1034D000079302F0B9FB08B1FFF744FB0248FFF77E
:1034E000A5FF0AB010BD00BF100A00200B480C4A0F
:1034F00008B500214FF4E1334FF00C0CC0E9002374
:10350000C0E902110161C0E905C1C16102F0BAFD63
:1035100018B1BDE80840FFF725BB08BD4C0A0020E4
:103520000010014010B5044688B01422002103A801
:1035300000F00EF92268174B9A4229D103F5943016
:1035400000240194416C41F010024264436C03F08A
:1035500010010191019A0294026B42F0010303638E
:10356000006B00F00101029102224FF4007C03A9DC
:103570000948029B0692CDE903C201F0D7FA4FF445
:10358000806303A904480594CDE9033401F0CEFA21
:1035900008B010BD001001400000024007B502A9AC
:1035A0004FF6FF7341F8040D0122034802F098FD25
:1035B000019803B05DF804FB4C0A0020002370B5AD
:1035C0000B70002836D00478002C33D0802232EAE9
:1035D0000406DDB203F101032DD0002D14BF2B46EC
:1035E00001230B70037823EA02024A60024601328B
:1035F000161A5FFA86FC65454C681FD815480022EC
:10360000182505FB02F31E58A6421FD803445E6826
:10361000A6421BD31D7A1E7C93F811C00D725D6902
:103620005A7ADB684A7216FB0CF0C210641B04FB6A
:103630000236CE6070BD42EA5202C8E792F800C07E
:103640000CF03F0343EA84144C60D0E70132052AB2
:10365000D7D1EFE7B064000800224FF400710148B1
:1036600001F0D8BB0004024008B9FFF7F5BF012202
:103670004FF40071014801F0CDBB00BF00040240CF
:1036800008B501460248FFF749FBC0B208BD00BFBC
:10369000B809002008B5FFF7E1FA0448FFF702FB7C
:1036A0000120BDE80840FFF7DFBF00BFB8090020D8
:1036B00070B50D4614460646FFF7CEFF0320FFF710
:1036C000DFFFC5F30740FFF7DBFFC5F30720FFF778
:1036D000D7FFE8B2FFF7D4FF4FF6FF75013CA4B265
:1036E000AC4204D10120BDE87040FFF7BDBFFF2010
:1036F000FFF7C6FF06F8010BF0E70000014B186862
:10370000704700BF2000002070B50D4E0D4CA41B6B
:10371000A4100025A54209D10B4E0C4C02F088FDE7
:10372000A41BA4100025A54205D170BD56F8253074
:1037300098470135EEE756F8253098470135F2E70E
:10374000E0650008E0650008E0650008E465000841
:1037500002440346934200D1704703F8011BF9E786
:1037600038B50546002945D051F8043C0C1F002B04
:10377000B8BFE41800F0C6FB1F4A1368104633B9FF
:10378000636014602846BDE8384000F0BCBBA3422B
:103790000CD921686218934204BF1A685B686360A1
:1037A00004BF521822600460ECE713465A680AB15D
:1037B000A242FAD919685818A0420BD120680144D6
:1037C000581882421960DDD1106852685A6001446D
:1037D0001960D7E702D90C232B60D3E720682118A2
:1037E0008A4204BF11685268626004BF09182160F0
:1037F0005C60C7E738BD00BF3403002070B5CD1C46
:1038000025F0030508350C2D38BF0C25002D064684
:1038100001DBA94203D90C233360002070BD00F006
:1038200071FB214A1468214691B9204C23681BB9C9
:10383000304600F0B9F820602946304600F0B4F870
:10384000431C24D10C233360304600F05CFBE4E7DA
:103850000B685B1B18D40B2B0FD90B60CD50CC1809
:10386000304600F050FB04F10B00231D20F0070050
:10387000C31AD3D05A42E250D0E78C424B6816BFED
:10388000636013600C46EBE70C464968CCE7C41C48
:1038900024F00304A04205D0211A304600F084F839
:1038A0000130CFD02560DBE734030020380300204F
:1038B0000FB40A4B13B51C6824B1A36913B9204691
:1038C00000F032FA05AB049AA1680193204600F09B
:1038D00043FB02B0BDE8104004B070472000002058
:1038E00070B50E46054618B183690BB900F01CFA95
:1038F000AB69AC6813B9284600F016FA234B9C421A
:1039000017D16C68A3891B071DD52369DBB1013E64
:10391000A36816F8011F013BA360E9B9002B2EDA5A
:1039200022460A21284600F04FF8013011D00A2023
:1039300011E0174B9C4201D1AC68E3E7154B9C4268
:1039400008BFEC68DEE72146284600F08FF8002823
:10395000DDD04FF0FF3070BD002B04DAA2699A422F
:1039600006DC0A2904D023685A1C22601970CFE7AC
:103970002246284600F028F80130C9D1E9E723683B
:103980000A205A1C22601870E5E700BF4C65000849
:103990006C6500082C650008024B01461868FFF7AB
:1039A0009FBF00BF2000002038B5064C002305460D
:1039B00008462360FFF7FEFC431C02D1236803B1D5
:1039C0002B6038BD8C0A0020F8B50E46144605461B
:1039D00018B183690BB900F0A7F9214B9C422AD199
:1039E0006C68A369A360A3891A072ED5236963B302
:1039F00023692068C01A6369F6B28342374604DC43
:103A00002146284600F026F928BBA368013BA360A5
:103A100023685A1C22601E7063690130834204D0FF
:103A2000A389DB0719D50A2E17D12146284600F0B5
:103A300011F990B10FE00B4B9C4201D1AC68D0E77B
:103A4000094B9C4208BFEC68CBE72146284600F0B2
:103A50000DF80028CCD04FF0FF373846F8BD00BF36
:103A60004C6500086C6500082C650008324B70B589
:103A70001D6806460C4625B1AB6913B9284600F00F
:103A800053F92E4B9C420FD16C68B4F90C309AB2AA
:103A900015072CD4D00611D40922326043F040031C
:103AA000A3814FF0FF303EE0254B9C4201D1AC6832
:103AB000EBE7244B9C4208BFEC68E6E7510712D5C0
:103AC000616B41B104F14403994202D03046FFF7E3
:103AD00047FE00236363A38923F02403A38100230B
:103AE000636023692360A38943F00803A3812369EA
:103AF0004BB9A38903F42073B3F5007F03D02146AB
:103B0000304600F0BFF9A28912F001030CD0002367
:103B1000A36063695B42A361236953B9B4F90C30B4
:103B200013F08000BAD170BD920758BF6369A360DB
:103B3000F2E70020F7E700BF200000204C650008F6
:103B40006C6500082C6500088A892DE9F04105465E
:103B500010070C4658D44B68002B05DC0B6C002B6F
:103B600002DC0020BDE8F081E66A002EF9D00023D7
:103B700012F480522F68216A2B6032D0606DA389C5
:103B80005A0705D56368C01A636B0BB1236CC01A62
:103B900000230246E66A216A2846B047431CA389EF
:103BA00006D129681D2948D8294ACA40D60744D5D4
:103BB00000226260D9042269226004D5421C01D12E
:103BC0002B6803B96065616B2F600029C9D004F1CF
:103BD0004403994202D02846FFF7C2FD00206063EB
:103BE000C0E701232846B047411CC8D12B68002BF1
:103BF000C5D01D2B01D0162B01D12F60B1E7A389B1
:103C000043F04003A381ADE70F69002FA9D09307CC
:103C10000E6808BF4B690F6018BF0023A6EB0708AA
:103C20008B60B8F1000F9CDD43463A46216AA66AD4
:103C30002846B047002806DCA38943F04003A3814F
:103C40004FF0FF308EE70744A8EB0008E9E700BF1C
:103C50000100402038B50B6905460C46DBB118B1B0
:103C600083690BB900F060F80C4B9C4209D16C6879
:103C7000B4F90C307BB121462846BDE83840FFF747
:103C800063BF074B9C4201D1AC68F1E7054B9C42F6
:103C900008BFEC68ECE7002038BD00BF4C650008A9
:103CA0006C6500082C650008002310B50446C0E9C7
:103CB0000033836081814366C281C0E9043383613C
:103CC000194608225C30FFF743FD054B6362054B44
:103CD000A362054BE362054B2462236310BD00BF62
:103CE00091440008B3440008EB4400080F45000865
:103CF000014900F085B800BF553C000870B54A1E68
:103D0000682555430E4605F17401FFF777FD04461B
:103D100040B10021C0E900160C30A06005F1680236
:103D2000FFF716FD204670BD836910B5044633BB0E
:103D3000C0E912330365124B124A1B688262984233
:103D400004BF0123836100F01FF86060204600F08B
:103D50001BF8A060204600F017F80022E060042164
:103D60006068FFF7A1FF01220921A068FFF79CFF0F
:103D700002221221E068FFF797FF0123A36110BD23
:103D800028650008F13C0008F8B51B4B1E68B369B4
:103D9000074613B93046FFF7C7FF4836D6E9013466
:103DA000013B03D5336833B13668F7E7B4F90C50FB
:103DB0006DB16834F4E704213846FFF79FFF3060A7
:103DC0000028F1D10C233B6004462046F8BD0B4B84
:103DD0006566C4E90055A560C4E90335C4E9055525
:103DE0000822294604F15C00FFF7B2FCC4E90D5536
:103DF000C4E91255E9E700BF286500080100FFFF8C
:103E00002DE9F8438046894600F14804002614B99C
:103E10003046BDE8F883D4E90175013F01D5246837
:103E2000F5E7AB89012B07D9B5F90E30013303D083
:103E300029464046C84706436835EEE770B50E464A
:103E4000B1F90E10002996B014461D4607DA00237A
:103E50002B60B3891A0610D44FF480630EE06A46D3
:103E600000F07CFB0028F2DB019A02F47042A2F51C
:103E700000535A425A412A60EEE740230020236053
:103E800016B070BD8B8973B59D0706460C4607D5E5
:103E900004F14703236023610123636102B070BD15
:103EA00001AB6A46FFF7CAFF009905463046FFF7A7
:103EB000A5FC48B9B4F90C309A05EFD423F00303FC
:103EC00043F00203A381E3E70D4BB362A3892060B3
:103ED00043F08003A381009B6361019B20615BB180
:103EE000B4F90E10304600F04BFB28B1A38923F043
:103EF000030343F00103A381A3891D43A581CDE7FB
:103F0000F13C0008704770479368013B002B10B4E8
:103F1000936007DA9469A34201DB0A2902D110BC3D
:103F2000FFF752BD1368581C10601970084610BC8A
:103F30007047F8B506460F461446D518AC4201D175
:103F4000002007E03A4614F8011B3046FFF7DCFF7B
:103F5000431CF3D1F8BD00002DE9F04F9DB00C4695
:103F600017460393064618B183690BB9FFF7DCFEC9
:103F70007B4B9C4257D17468A38918075DD5236990
:103F8000002B5AD00023099320238DF829303023A9
:103F90008DF82A304FF0010BB846454615F8013B25
:103FA0000BB1252B54D1B8EB070A0BD053463A4638
:103FB00021463046FFF7BDFF013000F0C280099B6B
:103FC0005344099398F80030002B00F0BA80002386
:103FD0004FF0FF32CDE90523049307938DF853305A
:103FE0001A93A846052218F8011B5E48FCF7F0F862
:103FF000049B78BBD90644BF20228DF853201A07B2
:1040000044BF2B228DF853202A782A2A2AD0079AD7
:10401000A84600200A25414611F8013B303B092BF8
:1040200069D960B324E0504B9C4201D1B468A3E746
:104030004E4B9C4208BFF4689EE721463046FFF78E
:1040400015FD00289ED04FF0FF301DB0BDE8F08F69
:10405000A846A2E7434A801A0BFA00F018430490DE
:104060004546BEE7039A111D12680391002A01DB41
:10407000079204E0524243F002030792049398F837
:1040800000302E2B0ED198F801302A2B38D1039B0B
:104090001A1D1B680392002BB8BF4FF0FF3308F1C5
:1040A00002080593324D98F8001003222846FCF7C9
:1040B0008FF840B14023401B03FA00F0049B0343F8
:1040C00008F10108049398F800102A488DF8281088
:1040D000062208F10107FCF77BF8002837D0264BB1
:1040E0001BBB039B073323F0070308330393099B90
:1040F0004B44099350E705FB0232012088468AE7CA
:10410000002308F10108059319460A25404610F8D6
:10411000012B303A092A03D9002BC3D00591C1E7FE
:1041200005FB012101238046F0E703AB0093224603
:10413000124B04A93046AFF30080B0F1FF3F814637
:10414000D5D1A3895B063FF57EAF09987DE703AB28
:1041500000932246094B04A9304600F087F8ECE7AB
:104160004C6500088C6500086C6500082C6500082B
:10417000926500089665000800000000333F0008C3
:104180002DE9F04791461F468A680B69DDF82080CB
:104190009342B8BF1346C9F8003091F84320064651
:1041A0000C4612B10133C9F800302368990642BFAA
:1041B000D9F800300233C9F80030256815F006053B
:1041C00007D104F1190AE368D9F800209B1AAB4221
:1041D00028DC94F843302268003318BF012392068C
:1041E0002DD404F1430239463046C047013020D077
:1041F0002368E568D9F8002003F00603042B08BF04
:10420000AD1AA36822690CBF25EAE5750025934223
:10421000C4BF9B1AED184FF000091A344D451AD14E
:10422000002008E00123524639463046C04701309D
:1042300003D14FF0FF30BDE8F0870135C3E7E11847
:104240005A1C302081F84300224494F8451082F82B
:1042500043100233C5E70123224639463046C047A2
:104260000130E6D009F10109D8E700002DE9F0435B
:1042700001F1430C0C46097E85B06E2917460646AF
:1042800098460C9A00F0B38022D8632936D00AD819
:10429000002900F0B980582900F0838004F142051C
:1042A00084F8421032E0642901D06929F6D12068EF
:1042B0001368050603F104012AD51B681160002B61
:1042C00003DA2D225B4284F843206F480A2239E04A
:1042D000732900F09D8008D86F2920D07029DDD186
:1042E000236843F02003236003E0752917D0782961
:1042F000D4D1782384F84530644855E01368191DFB
:104300001B68116004F1420584F8423001238CE0FF
:104310001B68116010F0400F18BF1BB2CFE7136885
:104320002568181D1060280601D51B6802E0680684
:10433000FBD51B8854486F2914BF0A22082200218C
:1043400084F843106568A560002DC0F2958021684F
:1043500021F004012160002B3DD1002D40F08E8022
:104360006546082A0BD12368DB0708D523696268F4
:104370009A42DEBF302305F8013C05F1FF35ACEB76
:1043800005032361CDF800803B4603AA2146304651
:10439000FFF7F6FE01304DD14FF0FF3005B0BDE81C
:1043A000F083394884F84510136821681D1D1B6887
:1043B00015600A060BD5CA0744BF41F020012160F1
:1043C0001BB9226822F0200222601022B7E74D06B6
:1043D00048BF9BB2EFE76546B3FBF2F102FB113336
:1043E000C35C05F8013D0B460029F5D1B9E7136818
:1043F00025686169181D106028061B6801D51960C1
:1044000002E06A06FBD51980002323616546B9E7FF
:104410001368191D11601D68626800212846FBF7AA
:10442000D7FE08B1401B606063682361002384F8F5
:104430004330A7E723692A4639463046C047013052
:10444000AAD023689B0713D4E068039B9842B8BFA7
:104450001846A3E701234A4639463046C047013093
:104460009AD00135E368039A9B1AAB42F2DCEBE782
:10447000002504F11909F5E7002BACD1037884F885
:10448000423004F142056CE79D650008AE65000806
:1044900010B50C46B1F90E1000F094F80028ABBF2F
:1044A000636DA3891B1823F48053ACBF6365A3819C
:1044B00010BD2DE9F0411F468B89DB0505460C46F2
:1044C000164605D502230022B1F90E1000F068F857
:1044D000A389B4F90E1023F48053A38132463B46DE
:1044E0002846BDE8F04100F017B810B50C46B1F908
:1044F0000E1000F055F8431CA38915BF606523F426
:10450000805343F48053A38118BFA38110BDB1F938
:104510000E1000F013B8000038B5074C05460846E9
:104520001146002222601A46FEF736FF431C02D1D4
:10453000236803B12B6038BD8C0A002038B5064CC7
:104540000023054608462360FEF74EFF431C02D1B8
:10455000236803B12B6038BD8C0A002038B5074CA6
:1045600000230546084611462360FEF740FF431C22
:1045700002D1236803B12B6038BD00BF8C0A002034
:1045800038B5064C0023054608462360FEF734FF85
:10459000431C02D1236803B12B6038BD8C0A002074
:1045A00038B5074C054608461146002222601A46D7
:1045B000FEF724FF431C02D1236803B12B6038BDF2
:1045C0008C0A002038B5074C0546084611460022E3
:1045D00022601A46FEF7D2FE431C02D1236803B1C3
:1045E0002B6038BD8C0A00207047704710B5094B0E
:1045F0004FF0FF3200241A621C625A625C621A6138
:104600001C615A615C619A619C61FFF7EEFF204674
:1046100010BD00BF0038024038B50E4A0E4B4FF4B3
:104620007A71054618781368B1FBF0F4B3FBF4F027
:1046300000F0AAF8044658B90F2D09D802462946B9
:104640004FF0FF3000F052F804480560204638BDB6
:104650000120FCE78C00002084000020880000205E
:1046600008B50B4B1A6842F400701860196841F4E1
:1046700080621A60186840F480711960032000F0AD
:1046800023F80F20FFF7C8FFFFF7AEFF002008BD9B
:10469000003C0240014B1868704700BF900A0020A0
:1046A00038B50446FFF7F6FF631C1CBF054B1B78AB
:1046B000054618BFE418FFF7EDFF401BA042FAD3F0
:1046C00038BD00BF84000020074AD36823F4E061AE
:1046D0000B04190C41F0BF6C00024CF4003300F4E1
:1046E000E0610B43D360704700ED00E0174B30B53D
:1046F000DC68C4F30224C4F10703042B04F10405AD
:1047000028BF04234FF0FF3C062D0CFA03F38CBFA7
:10471000033C002421EA0301A1400CFA04F422EA3C
:104720000405002841EA0501A8BF00F160404FEAF6
:104730000113BCBF00F00F00054AD9B2AABF00F5B3
:104740006140115480F8001330BD00BF00ED00E05F
:1047500014ED00E04209012300F01F0003FA00F10C
:10476000014840F82210704700E100E043090122AF
:1047700000F01F0002FA00F12033024840F8231035
:10478000704700BF00E100E00138B0F1807F0AD23D
:10479000064B074A5860F02182F8231000200722B8
:1047A00098601A6070470120704700BF10E000E079
:1047B00000ED00E0044B1A6804280CBF42F004022C
:1047C00022F004021A60704710E000E0084910B5BA
:1047D0000C6924F440740C610C6944F440740C615D
:1047E0000C6944F001040C610260436010BD00BF1D
:1047F000003C0240074B1A6922F440721A611A69A0
:1048000042F400721A611A6942F001021A610160F1
:10481000704700BF003C0240074B1A6922F4407207
:104820001A611A6942F480721A611A6942F001022F
:104830001A610180704700BF003C02401A4BDA68E1
:10484000D20606D51949C86940F01002CA61102184
:10485000D960D868800606D51449CA6942F00800B4
:10486000C8612021D960104BDA68510606D50F487F
:10487000C16941F00402C2614020D860D9680A06CB
:1048800006D50A48C26942F00201C1618020D860A1
:10489000054AD3689B0706D50449C86940F0200340
:1048A000CB610221D1607047003C0240940A002095
:1048B000064B1A69002ABFBF054A5A6002F18832C6
:1048C0005A60BABF1869C00F00207047003C024010
:1048D00023016745034A136943F00040106100203B
:1048E000704700BF003C0240F8B5124B124C00224A
:1048F0000546DA61FFF7CEFE26460746E068C203AA
:104900000CD4E168CD0744BF0125E560F46814F0DC
:10491000F20007D0FFF792FF012003E0691CEDD001
:104920000DB90320F8BDFFF7B5FEC31BAB42E5D9B7
:10493000F7E700BF940A0020003C02402DE9F04157
:104940001F4D98462B7E012B07460E46144635D048
:10495000012028764CF25030FFF7C6FFB0B9CFB92E
:10496000184F3A69E1B222F440743C613B693B6103
:10497000386940F001023A613170124E4CF2503009
:10498000FFF7B2FF316921F00107376100242C766F
:10499000BDE8F081012F04D1A1B23046FFF73CFF02
:1049A000EBE7022F04D121463046FFF723FFE4E76F
:1049B000224643463046FFF709FFDEE70220E7E7DD
:1049C000940A0020003C0240074B1A6922F440710F
:1049D00019611A6942F0040119611A6942F48031BF
:1049E00041EA002018617047003C024039B10129BA
:1049F0001CD002290CBF4FF400714FF440710D4BD5
:104A00001A6922F440721A611A691143196119690D
:104A100021F0F8021A61196941F0020C4CEAC00059
:104A200018611A6942F48031196170474FF480713E
:104A3000E5E700BF003C0240144B1A6891050FD512
:104A4000186820F4007119601A6842F40060186058
:104A5000196821F400621A60186840F40071196046
:104A60000A4B1A6852050FD5186820F48061196046
:104A70001A6842F480501860196821F480521A6054
:104A8000186840F480611960704700BF003C024024
:104A90002DE9F843234E337E012B044688463FD050
:104AA000012030764CF25030FFF71EFF0546A8B9C2
:104AB0004FF0FF31C8F800102268012A13D1207C82
:104AC000FFF782FF4CF25030FFF70EFF0546164805
:104AD000026922F004040461FFF7AEFF0027377675
:104AE0002846BDE8F883A768DFF83C90D4E902CEF9
:104AF000E644BE45F0D9217C3846FFF777FF4CF2FB
:104B00005030FFF7F1FED9F8103023F0FA01C9F860
:104B1000101018B1C8F800700546DDE70137E5E769
:104B20000225DDE7940A0020003C02402DE9F04F09
:104B300085B00B68DFF8A881674ADFF8A891019378
:104B400000230124019D04FA03FC05EA0C06B44588
:104B500040F0AD804C6824F01007022F15D1DD081D
:104B600000EB850A03F0070BDAF820504FEA8B0BB5
:104B70004FF00F0E0EFA0BFE25EA0E0E0D6905FA28
:104B80000BFB4BEA0E05CAF820504FEA430A4FF0E0
:104B9000030BD0F800E00BFA0AF5ED4305EA0E0B23
:104BA00004F0030E0EFA0AFE013F4EEA0B0E012F2F
:104BB000C0F800E011D8876807EA050BCF6807FA4C
:104BC0000AFE4EEA0B078760476827EA0C0CC4F31D
:104BD00000179F4047EA0C074760C7683D408F6851
:104BE00007FA0AF73D43C560E50060D54FF0000BBA
:104BF000CDF80CB0D8F8445045F48047C8F844705C
:104C0000D8F8445023F0030A05F480470AF1804E97
:104C10000397039F0EF59C3703F003054FEA850EBB
:104C2000D7F808A00F2505FA0EF52AEA050C2B4D3A
:104C3000A84243D005F5806B584541D00BF5806AFA
:104C400050453FD00AF58065A8423DD005F5806B00
:104C500058453BD048453BD00BF5006A504539D00C
:104C60000AF5806B584514BF0825072505FA0EFA8A
:104C70004AEA0C05BD601568F74314F4803F0CBF89
:104C80003D4035431560556814F4003F0CBF3D406E
:104C900035435560956814F4801F0CBF3D40354383
:104CA0009560D568A40254BF3D403543D5600133BB
:104CB000102B7FF446AF05B0BDE8F08F5D46D5E719
:104CC0000125D3E70225D1E70325CFE70425CDE76A
:104CD0000525CBE70625C9E7003C0140000002405E
:104CE00000380240001402402DE9F04F454EDFF835
:104CF0001CA1DFF81CB100244FF0010909FA04F2ED
:104D000032EA01036BD1032304FA09F5076803FAB9
:104D100005F5ED432F40076024FA03F700EB870EFB
:104D200004F00707DEF820804FEA870C0F2707FA08
:104D30000CFC28EA0C08CEF82080D0F808E005EA40
:104D40000E0CC0F808C0D0F80480D24302EA080E66
:104D5000C0F804E0D0F80CC024F0030805EA0C0504
:104D600008F1804EC56023400EF59C354FEA830C58
:104D7000254BD5F8088007FA0CF7984207EA080E89
:104D800032D003F58068404530D008F58069484549
:104D90002ED009F5806398422CD003F580684045F9
:104DA0002AD008F58069484528D0504528D0584574
:104DB0000CBF0723082303FA0CFCF4450FD1AB68A2
:104DC00023EA0707AF603568154035607368134004
:104DD0007360B7681740B760F5682A40F260013425
:104DE000102C89D1BDE8F08F0023E4E74B46E2E7C1
:104DF0000223E0E70323DEE70423DCE70523DAE709
:104E00000623D8E7003C01400000024000180240A1
:104E1000001C02400AB1816170470904FBE70000F1
:104E20002DE9F341044618B9012002B0BDE8F08134
:104E30000368DD0710D42368980758D427683A0719
:104E400000F19A8023685B0700F1B880A069002810
:104E500040F019810020E8E7A648826802F00C01C2
:104E6000042907D0856805F00C06082E0AD147688A
:104E7000790207D59F4A11688A03DCD56768002F3D
:104E8000D9D1D1E763689B4DB3F5803F11D1296833
:104E900041F480372F60FFF7FDFB964D06462B68E7
:104EA0009B03C8D4FFF7F6FB801B6428F7D90320C7
:104EB000BBE7B3F5A02F04D1286840F480222A6014
:104EC000E5E7286820F480322A60296821F48026EA
:104ED0002E60002BDFD1FFF7DDFB06462F68BF03F6
:104EE000A9D5FFF7D7FB831B642BF7D9DFE7814DEB
:104EF000AE6816F00C0F07D0A86800F00C02082A64
:104F000011D169684E020ED47A4F3B689D0702D5D5
:104F1000E068012888D13A68256922F0F80646EA57
:104F2000C50139608AE7E768734BB7B101211960A1
:104F3000FFF7B0FB6F4D06462F68B80707D52B6803
:104F4000206923F0F80646EAC0022A6076E7FFF7F8
:104F5000A1FB811B0229EFD9A9E71F60FFF79AFB8C
:104F6000644D0646286881077FF568AFFFF792FB1E
:104F7000821B022AF6D99AE76069604B78B1012753
:104F80001F60FFF787FB5B4D0646686F87073FF59D
:104F900059AFFFF77FFB811B0229F6D987E718601D
:104FA000FFF778FB534D06466A6F90077FF54AAFCF
:104FB000FFF770FB811B0229F6D978E74D4D2A6C6B
:104FC00012F0805628D10196296C41F080572F6449
:104FD000286C00F080530193019B0126484D2A68FC
:104FE000D1051BD5A368434D012B27D12B6F43F06F
:104FF00001072F67FFF74EFB3E4D074641F2883809
:105000002A6F930739D5002E3FF420AF394D2E6C0F
:1050100026F08051296419E70026DFE7296841F46A
:1050200080772F60FFF736FB07462868C205D9D482
:10503000FFF730FBC21B022AF7D938E7052B04D152
:10504000296F41F004002867D0E72A6F22F00101A0
:1050500029672F6F27F004002867002BCAD1FFF7BC
:1050600019FB41F2883807462B6F9807CBD5FFF71D
:1050700011FBC21B4245F7D919E7FFF70BFBC31B16
:105080004345BDD913E71B4DAB6803F00C07082F50
:105090003FF4CAAE1B4E00220228326034D1FFF723
:1050A000F9FA0746286881011ED4D4E90737626AF5
:1050B000E06AA46A3B4343EA821163085F1E41EA47
:1050C000006C4CEA07426A6001253560FFF7E2FA9E
:1050D000084C07462668B2013FF5BCAEFFF7DAFA86
:1050E000C11B0229F6D9E2E6FFF7D4FAC01B022859
:1050F000D8D9DCE60038024000004742800E474223
:105100000070004060004742FFF7C4FA04462E6872
:10511000B3017FF59FAEFFF7BDFA011B0229F6D957
:10512000C5E600BF134908B58B6803F00C02042ADA
:1051300003D0082A03D0104800E0104808BD4B688F
:1051400003F03F024B68496813F4800314BF0B4817
:105150000948C1F3881C18BF0023ACFB0001FBF712
:105160007BFB044A5368C3F3014101314A00B0FBA1
:10517000F2F0E3E7003802400024F40040787D01BB
:105180002DE9F0410D46044610B90120BDE8F0813B
:10519000434B1A6802F00F00884228D321688F071A
:1051A0002DD4C80740D43E4F3E6806F00F01A942F7
:1051B00065D8256869076BD42B0707D5394824695A
:1051C000826822F4604545EAC4078760354E364C54
:1051D000FFF7A8FFB168354BC1F3031813F8082097
:1051E000D04020600F20FFF717FA0020CEE7C8B2AA
:1051F0001870196801F00F06AE42C6D1CEE7294FEC
:1052000011F0040F1EBFB86840F4E050B8600E07FC
:1052100042BFB86840F46040B860BB68A06823F043
:10522000F0020243BA60BCE767681E4E012F1CD132
:10523000326812F4003FA8D01A4EB06820F0030183
:105240003943B160FFF726FA41F288380746B36860
:10525000626803F00C00B0EB820FA4D0FFF71AFADB
:10526000C01B4045F3D9032090E7B91E01293368DC
:1052700002D813F0007FDEE713F0020FDBE7EBB29A
:105280003B70386800F00F02AA427FF47EAF90E7CF
:10529000044FE368BE6826F4E0511943B9608BE718
:1052A000003C0240003802408C000020BF6500082E
:1052B000014B1868704700BF8C000020044B054A62
:1052C0009868C0F382210448535C0068D840704756
:1052D00000380240CF6500088C000020044B054ACE
:1052E0009868C0F342310448535C0068D840704766
:1052F00000380240CF6500088C000020036813F0DE
:10530000050FF7B5054605D12C6814F0020028D129
:1053100003B0F0BD414C424E00202060FFF7BAF9C7
:10532000074631680B0115D4D5E901273B0743EA4D
:105330008210C6F8840001262660FFF7ABF9384FCB
:10534000044639680801DFD4FFF7A4F9011B0229DC
:10535000F7D904E0FFF79EF9C21B022AE1D9032026
:10536000D6E72F4F2F4C002201923B6C43F0805028
:1053700038643E6C06F080510191019B226842F432
:1053800080772760FFF786F906462368D9051BD585
:10539000234C206F10F440761CD1ED68204F05F4AB
:1053A0004074B4F5407F34D1B86825F0704120F4E2
:1053B000F81621F440721643BE603C6FC5F30B052E
:1053C00025433D670020A3E7FFF764F9801B02280F
:1053D000DBD9C4E7E96801F4407C6645DDD0226F83
:1053E000114B22F440770120002618601E602767C9
:1053F000216FCA07D1D5FFF74DF941F2883706462C
:10540000226F9307C9D4FFF745F9831BBB42F7D935
:10541000A5E7BB6823F4F816CEE700BF6800474253
:105420000038024000700040400E47422DE9F04134
:10543000069E0446884617461D462268936838EA49
:1054400003000CBF01200020874201D100202DE085
:105450006B1CF3D065BB236865685A68B5F5827F1D
:1054600022F0E00058600AD1A668B6F5004F02D0DD
:10547000B6F5806F03D11F6827F040011960A26A5A
:10548000B2F5005F09D1186820F400552E04370CDE
:105490001F60196841F400521A604FF0010C4FF080
:1054A000000884F851C084F850800320BDE8F081E2
:1054B000FFF7F0F8811BA942BFD3CCE713B50B4629
:1054C0000092802100220446FFF7B0FF20B1636DF7
:1054D00043F020006065032002B010BD38B50446DB
:1054E00000283BD090F8513003F0FF021BB980F840
:1054F0005020FDF75DFB2168A269022084F851006D
:105500000D68A06A25F040030B60D4E901352B43F8
:10551000E5682B4325692B4365692B43E5692B43DC
:10552000256A2B43034302F400752B430B60120CD6
:10553000636AB0F5005F02F0040545EA030508BFA1
:10554000E36A4D6008BF0B61C86920F40062CA615C
:1055500000200121606584F8511038BD0120FCE76E
:105560002DE9FF411E4690F85030012B04460D46B0
:10557000904600F0BD80012084F85000FFF78AF8C3
:1055800094F851100746C8B2012840F0AF80002DB2
:1055900062D0B8F1000F5FD00023A068A36303229C
:1055A00084F85120A3876365C4E91033A4F83680DA
:1055B000E3872368A16A2563B0F5004F08BF186828
:1055C000A4F8348004BF40F480401860B1F5005F57
:1055D00009D11A6822F4005001040A0C1A601868F4
:1055E00040F4005119601A68E168500658BF186805
:1055F00062685CBF40F040001860B1F5006F3CD1BC
:105600001AB1E08E82B2012A0AD135F8021BD960A4
:10561000B4F836C00CF1FF3E1FFA8EF8A4F83680BD
:10562000E38E98B290B900973346012202212046BA
:10563000FFF7FCFE78B93A4631462046FFF73EFFB9
:1056400000283CD020236365012005E0236898688A
:105650008007DAD44EB903200125002684F8515082
:1056600084F8506004B0BDE8F081711CD8D0FFF719
:1056700011F8C11BB142D3D3EDE71AB1E08E82B26B
:10568000012A0AD115F8011B1973B4F836C00CF1C0
:10569000FF3E1FFA8EF8A4F83680E38E98B20028F9
:1056A000C1D023689A689207ECD4002ED3D0731C23
:1056B000F3D0FEF7EFFFC11BB142EED3CBE7A568F5
:1056C00035B926680395F2680392B7680397039B80
:1056D000A16AB1F5005F01BF2268116841F48051F1
:1056E0001160626D101C18BF0120B5E70220B3E7FE
:1056F0000220B7E72DE9F043044690F8500085B04A
:10570000994601284FF000030D4690460C9EADF8D7
:105710000A3000F06581012184F85010FEF7BAFFCD
:1057200094F851206168D3B2012B07460AD0B1F535
:10573000827F40F05281A068002840F04E81042B07
:1057400040F04B81002D00F03981B8F1000F00F0DE
:105750003581B9F1000F00F0318194F85120A06A31
:10576000C4F83880012A04BF052284F851200023A0
:10577000B0F5005F6365C4E91033A4F83E90A4F867
:105780003C902563A4F83690A4F83490236809D19E
:105790001A6822F400500204100C18601A6842F4CF
:1057A000005018601A68500658BF1A68E0685CBF5D
:1057B00042F040021A60B0F5006F78D129B1B4F818
:1057C00036C01FFA8CF2012A0AD135F8020BD860D4
:1057D000B4F836E00EF1FF311FFA81F9A4F83690E3
:1057E0004FF00109E38E9AB2B2B9E08F81B299B954
:1057F000A56AB5F5005F40F0C180012200973346ED
:1058000011462046FFF712FE002800F0B080626DBE
:1058100042F0020060653BE0B9F1000F1FD0E18E5D
:105820008BB2E3B122689068810718D535F8021B66
:10583000D160B4F836C00CF1FF3E1FFA8EF9A4F81F
:105840003690E38E1FFA83F9B9F1000F2CD1A06ACC
:10585000B0F5005F03D1116841F480531360E28F0B
:1058600090B270B121688B68DA070AD5CA6828F847
:10587000022BB4F83EC00CF1FF3081B2E1874FF04B
:105880000109701CAED0FEF705FFC31BB342A9D3BC
:105890004FF003080126002784F8516084F8507007
:1058A000404605B0BDE8F0834FF00009D7E719B1D5
:1058B000E18E8AB2012A0AD115F8010B1873B4F8E7
:1058C00036C00CF1FF3E1FFA8EF9A4F836904FF067
:1058D0000109E38E99B219B9E28F90B2002887D0FE
:1058E000B9F1000F27D0B4F836C01FFA8CF313B308
:1058F0002068816889071ED56A1C2D780573B4F865
:1059000036E00EF1FF391FFA89FCA4F836C0E38EA9
:105910001FFA83F9B9F1000F0AD1A06AB0F5005F50
:1059200004D12568296841F480532B60154602E0B4
:1059300015464FF00009E28F90B280B121688B6864
:10594000DA070CD5CA6888F80020B4F83EE00EF1FA
:10595000FF3081B2E18708F101084FF00109731CA3
:10596000B7D0FEF797FEC31BB342B2D390E72368CC
:10597000DA6890B2ADF80A00BDF80A3021688D6887
:1059800015F0100808D0636D4FF6EF7043F0020277
:1059900062654FF0010888600097334601220221BA
:1059A0002046FFF743FD00287FF472AF3A463146A8
:1059B0002046FFF783FD20B1202565654FF00108E3
:1059C00068E7A668002E7FF465AF27680396F9683C
:1059D0000391BB680393039B5CE74FF0020859E710
:1059E0004FF002085CE790F851007047036A23F01B
:1059F0000102026270B5066A446885690B6825F089
:105A000073020F4D1A4326F002038E68A84243EA40
:105A1000060303D005F58066B0420BD1CD6823F0B4
:105A200008032B43D1E9055624F44074354323F091
:105A300004032C434968446082614163036270BD82
:105A400000000140036A23F48072026270B5066AA6
:105A50004468C5690B6825F073028D6826F40076EA
:105A60001A4346EA05230D4EB04203D006F5806C7A
:105A700060450DD1CD6823F4006343EA052626F482
:105A80008063D1E9055624F44054354344EA0514B3
:105A900049684460C261C163036270BD0000014097
:105AA000036A23F480520262036A0A6830B54468CC
:105AB000C56925F4E64C8D6823F4005343EA0533A9
:105AC000094DA8424CEA022203D005F5806C6045DE
:105AD00004D14D6924F4804444EA85144968446043
