:020000040800F2
:1000000000000120356400088D3200087D330008AF
:10001000A9330008AB330008AD330008000000002E
:10002000000000000000000000000000AF330008E6
:10003000B133000800000000B3330008B5330008F6
:100040007D6400087D6400087D6400087D6400080C
:100050007D6400087D6400087D6400087D640008FC
:100060007D6400087D6400087D6400087D640008EC
:100070007D6400087D6400087D6400087D640008DC
:100080007D6400087D6400087D6400087D640008CC
:100090007D6400087D6400087D6400087D640008BC
:1000A0007D6400087D6400087D6400087D640008AC
:1000B0007D6400087D6400087D6400087D6400089C
:1000C0007D6400087D6400087D640008B933000881
:1000D0007D640008C53300087D6400087D64000865
:1000E0007D6400087D6400087D6400080000000055
:1000F0000000000000000000000000000000000000
:1001000000000000000000007D6400087D6400081D
:100110007D6400087D6400087D6400087D6400083B
:100120007D6400087D6400087D6400087D6400082B
:100130007D6400087D6400087D6400087D6400081B
:100140007D6400087D6400087D6400087D6400080B
:10015000000000000000000000000000000000009F
:10016000000000000000000000000000000000008F
:10017000000000000000000000000000000000007F
:10018000000000000000000000000000000000006F
:10019000000000000000000000000000000000005F
:1001A000000000000000000000000000000000004F
:1001B000000000000000000000000000000000003F
:1001C000000000000000000000000000000000002F
:1001D000000000000000000000000000000000001F
:0401E0005FF8E0F1F3
:1001E40010B5054C237833B9044B13B10448AFF36D
:1001F40000800123237010BD900000200000000047
:100204008064000808B5034B1BB103490348AFF3EE
:10021400008008BD000000009400002080640008F5
:1002240080F0004002E000BF81F0004142001FBFA7
:100234005FEA410392EA030F7FEA226C7FEA236CB0
:100244006AD04FEA1262D2EB1363C1BFD2184140A5
:1002540048404140B8BF5B42192B88BF704710F03B
:10026400004F40F4000020F07F4018BF404211F0DE
:10027400004F41F4000121F07F4118BF494292EA46
:10028400030F3FD0A2F1010241FA03FC10EB0C0072
:10029400C3F1200301FA03F100F0004302D54942FF
:1002A40060EB4000B0F5000F13D3B0F1807F06D3AC
:1002B40040084FEA310102F10102FE2A51D2B1F1A4
:1002C400004F40EBC25008BF20F0010040EA030099
:1002D4007047490040EB000010F4000FA2F1010246
:1002E400EDD1B0FA80FCACF1080CB2EB0C0200FAD0
:1002F4000CF0AABF00EBC25052421843BCBFD0401E
:100304001843704792F0000F81F4000106BF80F497
:1003140000000132013BB5E74FEA41037FEA226C5A
:1003240018BF7FEA236C21D092EA030F04D092F025
:10033400000F08BF0846704790EA010F1CBF002059
:10034400704712F07F4F04D1400028BF40F00040B6
:10035400704712F100723CBF00F50000704700F0D6
:10036400004343F0FE4040F4000070477FEA2262FD
:1003740016BF08467FEA23630146420206BF5FEACE
:10038400412390EA010F40F4800070474FF00003CE
:1003940004E000BF10F0004348BF40425FEA000C95
:1003A40008BF704743F0964301464FF000001CE03D
:1003B40050EA010208BF70474FF000030AE000BF93
:1003C40050EA010208BF704711F0004302D54042D1
:1003D40061EB41015FEA010C02BF84460146002043
:1003E40043F0B64308BFA3F18053A3F50003BCFA5E
:1003F4008CF2083AA3EBC25310DB01FA02FC63440B
:1004040000FA02FCC2F12002BCF1004F20FA02F211
:1004140043EB020008BF20F00100704702F1200204
:1004240001FA02FCC2F1200250EA4C0021FA02F265
:1004340043EB020008BF20EADC7070474FF0FF0C6A
:100444001CEAD0521EBF1CEAD15392EA0C0F93EA65
:100454000C0F6FD01A4480EA010C400218BF5FEA07
:1004640041211ED04FF0006343EA501043EA51117A
:10047400A0FB01310CF00040B1F5000F3EBF490074
:1004840041EAD3715B0040EA010062F17F02FD2A78
:100494001DD8B3F1004F40EBC25008BF20F001005B
:1004A400704790F0000F0CF0004C08BF49024CEA72
:1004B400502040EA51207F3AC2BFD2F1FF0340EA04
:1004C400C250704740F400004FF00003013A5DDC75
:1004D40012F1190FDCBF00F000407047C2F10002B6
:1004E400410021FA02F1C2F1200200FA02FC5FEAA3
:1004F400310040F1000053EA4C0308BF20EADC70ED
:10050400704792F0000F00F0004C02BF400010F45E
:10051400000F013AF9D040EA0C0093F0000F01F00B
:10052400004C02BF490011F4000F013BF9D041EA2D
:100534000C018FE70CEAD15392EA0C0F18BF93EA2F
:100544000C0F0AD030F0004C18BF31F0004CD8D159
:1005540080EA010000F00040704790F0000F17BFE0
:1005640090F0004F084691F0000F91F0004F14D026
:1005740092EA0C0F01D142020FD193EA0C0F03D17E
:100584004B0218BF084608D180EA010000F0004081
:1005940040F0FE4040F40000704740F0FE4040F45C
:1005A400400070474FF0FF0C1CEAD0521EBF1CEAFB
:1005B400D15392EA0C0F93EA0C0F69D0A2EB030219
:1005C40080EA010C49024FEA402037D04FF08053B3
:1005D40043EA111143EA10130CF000408B4238BF78
:1005E4005B0042F17D024FF4000C8B4224BF5B1A86
:1005F40040EA0C00B3EB510F24BFA3EB510340EAD4
:100604005C00B3EB910F24BFA3EB910340EA9C0081
:10061400B3EBD10F24BFA3EBD10340EADC001B01F1
:1006240018BF5FEA1C1CE0D1FD2A3FF650AF8B4295
:1006340040EBC25008BF20F0010070470CF0004CA2
:100644004CEA50207F32C2BFD2F1FF0340EAC250CD
:10065400704740F400004FF00003013A37E792F08E
:10066400000F00F0004C02BF400010F4000F013AEC
:10067400F9D040EA0C0093F0000F01F0004C02BFE7
:10068400490011F4000F013BF9D041EA0C0195E750
:100694000CEAD15392EA0C0F08D142027FF47DAFE9
:1006A40093EA0C0F7FF470AF084676E793EA0C0FD9
:1006B40004D14B023FF44CAF08466EE730F0004CD7
:1006C40018BF31F0004CCAD130F000427FF45CAF67
:1006D40031F000437FF43CAF5FE700BF4FF0FF3CD5
:1006E40006E000BF4FF0010C02E000BF4FF0010C28
:1006F4004DF804CD4FEA40024FEA41037FEA226CF1
:1007040018BF7FEA236C11D001B052EA530C18BF12
:1007140090EA010F58BFB2EB030088BFC81738BF77
:100724006FEAE17018BF40F0010070477FEA226C65
:1007340002D15FEA402C05D17FEA236CE4D15FEA61
:10074400412CE1D05DF8040B704700BF8446084695
:100754006146FFE70FB5FFF7C9FF002848BF10F156
:10076400000F0FBD4DF808EDFFF7F4FF0CBF01209B
:1007740000205DF808FB00BF4DF808EDFFF7EAFF25
:1007840034BF012000205DF808FB00BF4DF808EDE0
:10079400FFF7E0FF94BF012000205DF808FB00BFD5
:1007A4004DF808EDFFF7D2FF94BF012000205DF85B
:1007B40008FB00BF4DF808EDFFF7C8FF34BF012068
:1007C40000205DF808FB00BF42000ED2B2F1FE4FDC
:1007D4000BD34FF09E03B3EB126209D44FEA00230C
:1007E40043F0004323FA02F070474FF000007047D3
:1007F40012F1610F01D1420202D14FF0FF30704774
:100804004FF00000704700BF53B94AB9002908BF30
:1008140000281CBF4FF0FF314FF0FF3000F074B9D7
:10082400ADF1080C6DE904CE00F006F8DDF804E043
:10083400DDE9022304B070472DE9F0478C460446F5
:10084400089E002B4BD18A42154667D9B2FA82F230
:100854004AB1C2F1200701FA02F320FA07F79540E2
:1008640047EA030C94404FEA154EBCFBFEF71FFA0F
:1008740085F80EFB17C307FB08F9210C41EA034373
:10088400994509D9EB1807F1FF3180F01C8199458E
:1008940040F21981023F2B44A3EB0903B3FBFEF0A2
:1008A4000EFB103300FB08F1A4B244EA0344A14256
:1008B40009D92C1900F1FF3380F00781A14240F2DD
:1008C400048102382C4440EA07400027641A1EB110
:1008D4000023D440C6E900433946BDE8F0878B4283
:1008E40009D9002E00F0EC800027C6E90001384643
:1008F4003946BDE8F087B3FA83F7002F48D18B421D
:1009040002D3824200F2FB80841A61EB03030120CC
:100914009C46002EE0D0C6E9004CDDE702B9FFDEBC
:10092400B2FA82F2002A40F08F800127491B4FEA75
:1009340015481FFA85F9B1FBF8FE08FB1E1109FBE7
:100944000EF04FEA144C4CEA0143984207D9EB18D5
:100954000EF1FF3102D2984200F2CD808E461B1A6E
:10096400B3FBF8F008FB103309FB00F9A4B244EA26
:100974000344A14507D92C1900F1FF3302D2A14544
:1009840000F2B6801846A4EB090440EA0E409EE744
:10099400C7F12005BB4022FA05FC4CEA030C21FAFE
:1009A40005F44FEA1C4EB4FBFEF91FFA8CF80EFB5B
:1009B400194420FA05F3B94009FB08FA19430B0C52
:1009C40043EA0444A24502FA07F200FA07F30BD9FA
:1009D4001CEB040409F1FF3080F08880A24540F24A
:1009E4008580A9F102096444A4EB0A04B4FBFEF077
:1009F4000EFB104400FB08FA89B241EA0444A24504
:100A040008D91CEB040400F1FF316BD2A24569D96B
:100A14000238644440EA0940A0FB0289A4EB0A04BA
:100A24004C454146CE4654D351D0002E69D05A1A73
:100A340064EB0E0404FA05F522FA07F3FC401D43A7
:100A4400C6E90054002747E79540C2F1200321FA84
:100A540003F04FEA1548B0FBF8F71FFA85F908FBD5
:100A6400170024FA03F3914007FB09FC0B43190C0C
:100A740041EA00418C4504FA02F407D9691807F1E8
:100A8400FF3031D28C452FD9023F2944A1EB0C0110
:100A9400B1FBF8F008FB101C00FB09FE99B241EA17
:100AA4000C418E4507D9691800F1FF3318D28E45E1
:100AB40016D902382944A1EB0E0140EA07473AE768
:100AC4003746304608E70F46E6E61846FBE6434558
:100AD400ABD2B8EB020169EB0C0201389646A4E7ED
:100AE4001846E8E7084695E70746CFE781467BE7DF
:100AF40002382C4447E7AEF1020E2B442FE7384668
:100B040007E73746E8E600BF704700BF034B1A18F3
:100B140003EB80004168107A4B681847CC00002032
:100B2400064B1A5C42B901211A18195403EB8000D0
:100B34004368107A1968084700207047CC000020E9
:100B440030B4054C251804EB80004468287AA46866
:100B5400A44630BC604700BFCC00002030B4054C34
:100B6400251804EB80004468287AE468A44630BC65
:100B7400604700BFCC00002010B4044B1C1803EBEA
:100B840080004368207A1B6910BC1847CC00002001
:100B940001380A44914200D1704711F8013B00F832
:100BA400013FF7E70244904200D1704700F8011B6F
:100BB400F9E700001F4A30B5136883B1D0F800424A
:100BC4009C420AD15568D0F808329D4205D1B2F84A
:100BD40008C0B0F80642A44525D0002400E0012452
:100BE400D368F3B1D0F80052AB420AD11569D0F8FA
:100BF40008329D4205D1B2F814C0B0F80652AC4593
:100C040016D074B902290CBF0020122030BD0C216B
:100C140001FB04225389B3F5807F14BF0020102008
:100C2400F4E70020F2E700240029F0D01020EDE7DB
:100C34000124F9E7B0000020254AF0B51368D0F884
:100C440000629E4209D15568D0F80842A54204D1F9
:100C5400B0F806721589AF422AD0D468B4420AD1DA
:100C64001769D0F80852AF4205D1B2F814C0B0F8F1
:100C74000672BC4527D00BB13CBB01230C240027D2
:100C84005C431651D0F80862B0F8060215196E607C
:100C940028816F81A1B90C2101FB032CBCF80A4007
:100CA4000134A7B20C2101FB0322581C5781F0BD6B
:100CB40000230029EFD00C2505FB0326708920B9F9
:100CC4004FF48077EEE70123F3E70020EFE700BF5E
:100CD400B0000020013801281AD80C220D4902FB6B
:100CE400001CBCF80A30B3F5807F07D10022ACF8B1
:100CF4000A200C2343430020C8507047002BF8D02F
:100D04005A1E93B2ACF80A30002BF2D00020704780
:100D140002207047B0000020D0F80022D0F824321E
:100D240092F80202490AB1FBF0F10433186830B1B9
:100D3400814202D3091A0833F8E758680844704717
:100D4400D0F8102270B501F109031AB300242E263D
:100D5400D0F81422551E15F8010F0134202808D0AC
:100D6400052808BFE520092C04BF1E700133187044
:100D740001330B2CEFD1D57A0D72D4690C60567EF9
:100D840092F818C04CEA06208880D57D927D42EA0C
:100D94000524CC800021197070BD026810B552B1D1
:100DA40011460B4611F8014B202C0CD93A2CF8D1E2
:100DB400511C8B4202D04FF0FF3005E01278302AEC
:100DC400F9D101330360002010BD08B590B1D0F80B
:100DD40000327BB193F8002262B1B3F80612B0F886
:100DE4000402814206D193F80102FFF78FFE10F04E
:100DF400010000D0092008BDCA7E8B7E032843EA87
:100E0400022C01BF487D0A7D42EA00224CEA024CD2
:100E14006046704770B5D0F82C5204460146012351
:100E24002A4690F80102FFF799FED0B9D4F820328F
:100E3400D4F8182284F80402E81A904201D300205E
:100E440070BD94F80362012EF9D9D4F81812012365
:100E54000D442A46214694F80102FFF77FFE013E25
:100E6400F1E70120ECE790F804320BB1FFF7D2BFB1
:100E740018467047D0F82C3270B58B4206460D46A2
:100E840013D0FFF7F0FF044668B92A460123314620
:100E940096F80102FFF754FE00281CBF4FF0FF35FF
:100EA4000124C6F82C52204670BD0024FBE7000044
:100EB40000234FF0FF3210B580F80432C0F82C2222
:100EC4000446FFF7D7FFC0B94AF6552394F8FF113B
:100ED40094F8FEC14CEA012E9E4510D1D4F8362078
:100EE400084B22F07F41994206D0D4F8520020F0FA
:100EF4007F44E01A18BF012010BD0320FCE7022044
:100F0400FAE700BF464154000023F0B5036085B002
:100F1400074608461546FFF740FF061EC0F2288123
:100F2400974850F82640002C00F024813C6094F847
:100F3400001271B194F80102FFF7E8FDC70708D465
:100F4400002D00F0198110F0040000D00A2005B033
:100F5400F0BD0022F0B284F8002284F80102FFF709
:100F6400DFFDC10700F10A810DB14207EED4002173
:100F74002046FFF79DFF012840F0E180002604F59C
:100F8400E37717F8043C03B13B684DF8263001368B
:100F9400042E07F11007F4D100275DF82750002D27
:100FA40000F0C48029462046FFF782FF002840F065
:100FB400BE80207BE17A41EA0022B2F5007F40F056
:100FC400C180E67DA37D94F810C053EA062108BFD2
:100FD400616A0CF1FF37012FC4F8181284F803C2B8
:100FE40000F2B080667B84F80262002E00F0AA80D2
:100FF400701E304240F0A680637CA27C43EA02204B
:101004000307A4F8080240F09D80277D94F813E0BC
:10101400A27B5EEA0723E77B08BF236A52EA072222
:1010240000F0908001FB0CFC02EB10176744BB42FC
:10103400C0F08880DB1BB3FBF6F3002B00F082804A
:1010440040F6F5764FF6F57EB34294BF01260226AC
:10105400734588BF03262A4402332F44032EC4F861
:101064001432C4F81C52C4F82022C4F828726DD17A
:10107400002867D1E26A9B00C4F8242203F2FF1718
:10108400B1EB572F5ED34FF0FF314FF0800C032E9E
:10109400C4F81012C4F80C1284F805C22DD194F8C7
:1010A400310094F8303043EA0022012A25D1691C2A
:1010B4002046FFF7DFFE00BB84F805024AF6552000
:1010C40094F8FF5194F8FE7147EA0521814214D146
:1010D40022682C4B9A4210D103F1FF5ED4F8E451FC
:1010E4000EF500572037BD4201BFD4F8E871C4F8AB
:1010F4001072D4F8EC71C4F80C72234B84F80062BB
:101104001A68224E944208BF00223188DD6801F13A
:10111400010188B208BF1A60AC423080A4F806020C
:101124004FF000007FF413AFD86010E702200137BE
:10113400042F7FF432AF032804D1012007E70328EA
:10114400FBD008B10D2002E7054632E70028F9D0AC
:10115400022E4FEA430018BFC018624418BF03F0C0
:101164000103C4F824220CBF034603EB500385E7B4
:101174000B20ECE60C20EAE62846E8E60320E6E647
:10118400AC00002052526141B0000020C800002091
:1011940038B50446FFF767FE054600284BD194F89E
:1011A4000032032B3ED194F80532012B3AD101468B
:1011B4004FF400722046FFF7F5FC4AF655221E480C
:1011C400A4F8FE2100F1FF51206001F50052D4F88B
:1011D40010022032C0F3072C010CC4F8E42184F877
:1011E400E801020ED4F80C0284F8EB21020E84F814
:1011F400EF21D4F81C2284F8E9C184F8EA11C0F381
:10120400072C010C013284F8EC0184F8EE1184F807
:10121400EDC1C4F82C22214694F80102FFF79EFC8C
:1012240084F80552002294F801021146FFF7A4FC49
:10123400003018BF012038BD52526141D0F8143239
:1012440002399A1E8A4283BF90F80222D0F82802FB
:1012540001FB0200002070470129F8B506460D463F
:1012640059D9D0F814328B4255D990F8001202297A
:1012740027D0032936D001294DD1D0F8202205EBFF
:10128400550402EB5421FFF7F5FD10B14FF0FF3088
:10129400F8BDD6F82032671CC4F30800345C03EBB5
:1012A40057213046FFF7E6FD0028EFD1C7F30801C8
:1012B400765CEB0744EA06204CBF0009C0F30B0040
:1012C400E6E7D0F8204204EB1521FFF7D3FD002810
:1012D400DCD16B0003F4FF7031184D78365C46EABC
:1012E4000520D5E7D0F8202202EBD511FFF7C2FD87
:1012F4000028CBD1AD0005F4FE77F419A078E3788B
:101304000104F65D41EA03656278354345EA022744
:1013140027F07040BCE70120BAE7F8B50546D0F8DD
:1013240008420E46012CA5F8061201D10220F8BD90
:10133400D0F80032D3F81422A242F7D9F4B993F8C2
:101344000012032902D1D3F82402C0B9B3F8080269
:10135400B042EBD9D3F82402C5F80C420028E5D0FA
:10136400D5F8004206F00F0700EB161104EB471303
:10137400C5F81012C5F814320020D8E720460446F8
:1013840093F802723F01BE42D5F80002214602D210
:10139400FFF754FFE0E7FFF75FFF431C044609D063
:1013A4000128C3D9D5F80032D3F814228242BDD91A
:1013B400F61BE8E70120BAE701292DE9F0410546CB
:1013C4000C4616466FD9D0F814328B426BD990F87C
:1013D400001202293AD003294BD0012963D1D0F855
:1013E400202204EB540702EB5721FFF743FD20BBF7
:1013F400C7F3080007F10108012714F0010417BF1F
:101404002B5CF3B203F00F0133011CBF03F0F003B4
:101414000B432B54D5F8202285F8047202EB582193
:101424002846FFF727FD40B9C8F308033CB1C6F3CB
:101434000711E954012485F80442BDE8F081EC5C0D
:10144400C6F3032624F00F013143F2E7D0F820124B
:1014540001EB1421FFF70EFD0028EED1620002F427
:10146400FF7C05F80C60AC44C6F307268CF80160D9
:10147400E0E7D0F8207207EBD411FFF7FBFC00285B
:10148400DBD1A20002F4FE742919CB781F0607F001
:10149400704216432E55330CC6F30724370E4C7096
:1014A4008B70CF70C6E70220C7E7F8B505460F4634
:1014B40089B9D0F80C62FEB1D0F81402864228BF74
:1014C40001263446D5F814120134A14217D8012E4E
:1014D40014D8002408E0FFF7BFFE012804463BD9D6
:1014E400601C03D14FF0FF342046F8BDD5F8143208
:1014F400A342F9D83E46E4E70126E2E70224214666
:101504002846FFF7A9FE30B1411CEBD0012823D0B7
:10151400B442D7D1DDE76FF0704221462846FFF789
:101524004BFFB8B97FB9D5F81072C5F80C427A1CD4
:10153400DAD095F805C27A1E4CF0010EC5F81022D7
:1015440085F805E2D0E7224639462846FFF734FFFE
:101554000028E8D00128C5D00124C5E72DE9F843C7
:10156400B0F8066204460136B3B2894613B90420C2
:10157400BDE8F883D0F810120029F8D016F00F084F
:101584000BD10131D0F80002C4F81012D4F80C12B7
:1015940069B9B0F80812B142E9D9D4F80022A4F824
:1015A400066202EB4815C4F814520020E0E790F8F4
:1015B40002727A1E12EA1617EFD1FFF74DFE0128C8
:1015C400054601D80220D3E7421C01D10120CFE710
:1015D400D4F80002D0F81432AB422FD8B9F1000F7E
:1015E400C5D0D4F80C12FFF760FF054600283ED0A2
:1015F4000128E7D0431CE9D0D4F80002FFF733FCFC
:1016040001460028E2D14FF40072D4F80002FFF73B
:10161400C9FAD4F8009229464846FFF70FFEC9F8E4
:101624002C024FF00109D4F8000290F80212B942DA
:101634000ED8D0F82C22D71BC0F82C72C4F80C5248
:101644002946D4F80002FFF7F9FDC4F81002A4E714
:1016540080F80492FFF7DEFB0028B7D1D4F800022B
:101664000137D0F82C320133C0F82C32DBE70720E5
:101674007EE700002DE9F8430B7804462F2B0D4636
:1016840001D05C2B00D101350026C4F8086228780B
:101694001F2835D95D4F2978A8462F2905F1010562
:1016A400F9D05C29F7D0D4F818620B2220213046F7
:1016B400FFF778FA4FF0000C0821E646624608F17D
:1016C400FF3919F8013F0EF1010E202B27D92F2BDA
:1016D40025D05C2B23D02E2B00F0848061450DD9BE
:1016E400180644BF803BFB5C494D48BF42F00302EF
:1016F40015F8010F00287CD08342F9D1062005E0BB
:1017040031462046FFF709FEC4F81462BDE8F883A9
:1017140042F0020206F80C300CF1010CD1E7212B47
:1017240008EB0E0534BF04230023BCF1000FE5D001
:101734003078E52804BF05203070082904BF9200E2
:10174400D2B202F00301012902F00C0208BF43F0F7
:101754001003042A08BF43F00803F3720021204653
:10176400FFF7DBFD08BBD4F81012D4F80002FFF732
:1017740081FBD0B9D4F814221678AEB192F80BE0FC
:101784005FEA0E710BD4D4F8183203F10B089845B4
:101794000BD012F8019B13F801CBE145F7D00021DF
:1017A4002046FFF7DBFEDDE70420D4F81812CA7ADE
:1017B40030B10428AAD112F0040F08BF0520A5E710
:1017C4005207A3D4D4F81412C87AC30608D5D4F89F
:1017D400006296F80002FFF70FFBC4F808025AE70C
:1017E400052093E7082989D193008C46DAB20B21AE
:1017F40067E7A3F14105192D8AD9A3F161001928DE
:101804009EBF203B42F00102DBB283E7B6640008CE
:101814003565000838B500210546FFF77EFD70BB2D
:10182400D5F81012D5F80002FFF724FB38BBD5F821
:1018340014321878E5281BD1D5F81012D5F8000217
:10184400FFF718FB044688B901462022D5F8140294
:10185400FFF7A8F90B22D5F81812D5F81402FFF7F0
:1018640097F90122D5F8001281F80422204638BDE8
:101874000028E1D001212846FFF770FECFE70428B5
:1018840014BF04460724F1E7012970B504460D4648
:1018940001D8022070BDD0F814328B42F9D9D4F8A3
:1018A4001402854205D229462046FFF7D5FC064698
:1018B40008B90020EEE70128EBD0411C15D0002226
:1018C40029462046FFF778FD0028E3D1D4F810120A
:1018D4004A1C08D094F80522013142F00105C4F8ED
:1018E400101284F805523546D9E70120D2E70000EA
:1018F4007FB5CDE9001004A840F8041D1646FFF793
:101904004CFA051E21DB134951F8254064B1124BF2
:101914001A68D868944204BF00221A6000228442E4
:1019240008BFDA6084F80022019810B1002480F81E
:10193400004241F8250030B1012E08D10022694649
:1019440001A8FFF7E1FA04B070BD0B20FBE700200B
:10195400F9E700BFAC000020B00000202DE9F043FF
:10196400ADF50F7D019190460546002800F0A78053
:10197400002302F01E02C0F8003201A986A8FFF776
:10198400C3FA0646002840F0958003A88C9001997C
:1019940006A8FFF76FFE08F01F078B9C48B9002CC0
:1019A4005BD017F01E0F14BF0121002106A8FFF71A
:1019B40001F918F01C0F5CD0002850D0042808D17D
:1019C40052490B6813B1C86800287AD106A8FFF7FA
:1019D40021FF47F0080700283DD18B9C3B0752D5D7
:1019E40000F000FD4FF00008030EC0F30722010CC5
:1019F4002174637484F80B8084F81C8084F81D803F
:101A040084F81E8084F81F80A073E27386982146B0
:101A140090F80002FFF7F0F94FF0010C84F81A80F7
:101A240084F81B8084F8148084F81580869B804693
:101A340083F804C238B301461846D3F82C92FFF752
:101A440023FF40B9869808F1FF32C0F80C224946BA
:101A5400FFF710FAB8B106462CE00620A9E794F87F
:101A64000B9019F0110F30D118F0040FB6D00826DE
:101A740020E00028EFD1E27AD00624D418F0020F37
:101A840001D0D20721D486983B0748BF47F02007EE
:101A9400D0F82C3217F0FE0FC5F81C32C5F82042DE
:101AA40014BF0121002106A8FFF7C6F8C5F82802D3
:101AB40068B9022630460DF50F7DBDE8F08309268E
:101AC400F8E71226F6E70426F4E70726F2E785F896
:101AD40006720027DDF8188285F8077298F800026C
:101AE4002146FFF789F9C5F81002E469B8F806122F
:101AF400C5F80C42C5F80872C5F81872C5F8247206
:101B0400C5F80082A5F80412D4E700BFB000002095
:101B14002DE9F74F9B460023CBF800300446894655
:101B24001546FFF752F9064668BB94F807020028E9
:101B340040F0B08094F80612C80740F1AD80D4F8A4
:101B44000C22D4F80872D71BAF4228BF2F46D7B156
:101B5400D4F80812C1F30805002D40F08C80D4F8A5
:101B6400000290F8028208F1FF3A0AEA512C1CF0B4
:101B7400FF0301931DD151B9D4F81002012812D8E2
:101B8400022684F80762304603B0BDE8F08FD4F82B
:101B940024221AB12046FFF7BFF8EFE7D4F8141255
:101BA400FFF75AFBEAE7411C01D10126E9E7C4F833
:101BB4001402D4F800A2D4F814125046FFF73EFBE6
:101BC4000028DDD001997D0A00EB010830D0019A8C
:101BD4009AF802122A448A4288BF019A9AF80102AA
:101BE40088BF8D1A2B4642464946FEF7A9FF0028B6
:101BF400DBD194F8060242060CD5D4F81832A3EBD4
:101C0400080A554506D94FF40072214609EB4A20CB
:101C1400FEF7BEFF6D02D4F80812DBF80020294459
:101C24002A44C4F80812A944CBF800207F1B8EE78D
:101C3400D4F8182290451CD094F8060243060DD51A
:101C4400012321469AF80102FEF788FF0028ACD14F
:101C540094F806E22EF0400C84F806C2D4F8005240
:101C640001234246214695F80102FEF769FF002848
:101C74009BD1C4F81882D4F808324846C3F308014B
:101C8400C1F50075BD4228BF3D4621442A46FEF7F2
:101C94007FFFC0E7064676E7072674E770B504467B
:101CA400FFF793F8002859D194F806329A0655D5CF
:101CB4005B0611D5D4F800020123D4F8182221467A
:101CC40090F80102FEF74AFF002846D194F8061264
:101CD40021F0400284F80622D4F81C12D4F8000241
:101CE400FFF7C8F80646C8BBD4F8205295F80BC0D5
:101CF4004CF02003EB72D4F80C022877B4F80C12E1
:101D04000A0A6A77B4F80E32AB7794F80F02E877D0
:101D1400D4F810120B0CC1F30722180AA976EA763C
:101D24002B75687500F05EFBC0F30721020C030EEF
:101D3400A875E9752A766B76AE74EE7494F806622B
:101D4400D4F8000226F0200584F80652012480F815
:101D54000442BDE87040FFF71BBA012070BD10B506
:101D64000446FFF79BFF50B92046FFF72EF830B921
:101D7400D4F82802FEF7AEFF08B9C4F8000210BD7B
:101D840030B5ADF50F7D01900D46002201A986A85E
:101D9400FFF7BAF8044670B903AB019906A88C930F
:101DA400FFF768FC044630B98B9840B11DB1294651
:101DB40006A8FEF7C5FF20460DF50F7D30BD0624AD
:101DC400F9E7000030B5114B5C7A012C1BD80024D4
:101DD4005D7A5FFA85FC5D7A03F80C4003EB850CB1
:101DE400CCF80400587A184402725A7AD5B2681CA6
:101DF400C2B230355A720D703A232F2520464B70EB
:101E04008D70CC7030BD0120FCE700BFCC000020F9
:101E14000022FFF7D7BFF8B5074616460D461C4605
:101E24002A2000F08BFC380A00F0A2FCF8B200F083
:101E34009FFC300A00F09CFCF0B200F099FC2B20CF
:101E440000F07CFC280A00F093FCE8B200F090FC5F
:101E5400200A00F08DFCE0B2BDE8F84000F088BC38
:101E6400014B1880704700BF00000020014B188010
:101E7400704700BFD8000020002138B540F23F125F
:101E8400EF2305460846FFF7C6FF2C2000F056FC5A
:101E94004FF49634284600F06BFC013CFAD138BD6F
:101EA40030B50125034C2570034C2080A28061804D
:101EB400E38030BDDA000020DC00002010B5124BB6
:101EC40014461A78012A10D1104BB3F900C0844586
:101ED40019DCB3F90420824215DDB3F902C08C4544
:101EE40011DCB3F906308B420DDD82B28BB21046A1
:101EF4001946FFF790FF2C2000F020FC2046BDE897
:101F0400104000F035BC10BDDA000020DC000020D9
:101F14002DE9F84316461F46013A013B9BB292B2A3
:101F240004468846BDF82090FFF775FF2C2000F08A
:101F340005FCB4420BD3BDE8F883484600F018FC16
:101F44000135ADB2BD42F8D30134A4B2F1E7454640
:101F5400F8E7000070B51546013A0B4692B2044604
:101F6400FFF759FF2C2000F0E9FB054EAC4200D3EB
:101F740070BD3088013400F0FBFBA4B2F6E700BF6B
:101F840000000020531E70B59BB2154602460C4655
:101F9400FFF741FF2C2000F0D1FB054EAC4200D3EB
:101FA40070BD3088013400F0E3FBA4B2F6E700BF53
:101FB40000000020F8B51D46074614460E46FFF7FC
:101FC400C9FF691E2246384689B2FFF7C3FF2A4675
:101FD40031463846FFF7D6FF601E2A463146BDE833
:101FE400F84080B2FFF7CEBF2DE9F04F1C4689B010
:101FF40000AF07F11005F8607960934600211022C4
:10200400284601F0F1FB002C59D02378002B56D040
:10201400E8462046294601F01FFB387E7A7E0024DC
:102024004243D210D11DCE08A8EBC609CD46F969AA
:102034006846C7F808D0A04601F086FB21467B68B5
:1020440097F819A0E2B2E01892450FFA80F936D950
:102054003E7E00220736F31004E0BE6816F80AC07C
:102064004CEA0828D6B288189E425FFA80FA02F138
:102074000102F2DB002697F818E05FFA86FCF445CB
:1020840002D301345146DAE701220EF1FF3302FA9A
:1020940003F010EA080F0BD00E4ADC4412880FFA42
:1020A4008CF14846FFF70AFF4FEA48080136E2E799
:1020B40009490B78012BF7D1DC44084AEEE7FC68A8
:1020C40095E80F0084E80F0020462437BD46BDE89C
:1020D400F08F00BF0000002002000020D800002084
:1020E400F0B505460E4614460B4F85B023780BB960
:1020F40005B0F0BD2346294632466846FFF774FF13
:102104002178384601F01EFC9DF809009DF8001066
:1021140005442DB20C44E9E7456500080AB1FFF710
:10212400DFBF704708B5322002F012FBFE2000F03A
:1021340005FBEF2000F002FB3A2000F0FFFA052037
:1021440000F016FB362000F0F9FA642000F010FBD2
:10215400E82000F0F3FA122000F00AFB222000F03D
:1021640007FBE32000F0EAFA012000F001FB042061
:1021740000F0FEFAA52000F0E1FA402000F0F8FAA1
:10218400402000F0F5FAA42000F0D8FA442000F032
:10219400EFFA442000F0ECFAAB2000F0CFFA08206C
:1021A40000F0E6FAAA2000F0C9FA882000F0E0FA6C
:1021B400882000F0DDFAAE2000F0C0FA0B2000F019
:1021C400D7FAAC2000F0BAFA002000F0D1FAAF2020
:1021D40000F0B4FA772000F0CBFAAD2000F0AEFAAC
:1021E400772000F0C5FA2A2000F0A8FA002000F0B9
:1021F400BFFA002000F0BCFA002000F0B9FAEF208A
:1022040000F0B6FA2B2000F099FA002000F0B0FAA2
:10221400002000F0ADFA012000F0AAFA3F2000F0FF
:10222400A7FA2C2000F08AFAF02000F087FA0220A6
:1022340000F09EFA002000F09BFA002000F098FACB
:10224400012000F095FA012000F092FA072000F036
:102254008FFAF12000F072FA012000F089FA0320CD
:1022640000F086FA002000F083FA362000F080FAAD
:10227400292000F07DFA132000F07AFAF22000F011
:102284005DFA082000F074FA062000F071FA2420A8
:1022940000F06EFA032000F06BFA052000F068FAF3
:1022A400342000F065FAF32000F048FA162000F01C
:1022B4005FFA0C2000F05CFA5A2000F059FA04206E
:1022C40000F056FA032000F053FA692000F050FAA7
:1022D400F42000F033FA0D2000F04AFA182000F040
:1022E40047FA152000F044FA052000F041FA0520D1
:1022F40000F03EFA002000F03BFAF52000F01EFA50
:102304000D2000F035FA182000F032FA172000F002
:102314002FFA352000F02CFA392000F029FA002099
:1023240000F026FA112000F009FA962002F010FAC3
:10233400292000F003FABDE808402C2000F0FEB983
:1023440008B5362000F0FAF9BDE80840A42000F0F2
:102354000FBA08B500F06EFAFFF7E4FE0020FFF7AD
:102364008BFDBDE80840142002F0F2B910B501223B
:10237400044660B94FF400710A4802F0F3FC2246A7
:102384004FF400610848BDE8104002F0EBBC4FF484
:102394000061054802F0E6FC00224FF40071014898
:1023A400F1E700BF000C01400014014008B5012210
:1023B4004FF40061054802F0D5FCBDE80840012255
:1023C4004FF40071024802F0CDBC00BF001401407C
:1023D400000C014001490248FFF71ABD3C030020EC
:1023E4000800002000207047F0B504460F46002581
:1023F400012687B0BC4202D9002007B0F0BD01A974
:1024040002A8CDE90256CDE90446019502F00CFB81
:102414000028F2D104F50064ECE7000000232DE964
:10242400F34105460E46102402AFDFF834800B60FA
:1024340047F8043D294680223B464046FFF768FBA7
:10244400019932680D440A44326028B9802903D1C5
:10245400013CA4B2002CEDD102B0BDE8F08100BF74
:10246400E8000020F8B50D4616460C46471A631BD3
:102474009E4201D8002008E03919002334F8022BC9
:10248400012002F05BFA0028F1D0F8BD37B5A0EBCB
:10249400002404F57F40FF3085B22846FFF7E0FCB6
:1024A400012100950846F0230A22FFF731FD04F5C7
:1024B4007E43BE3399B2009101210A2308464FF4AA
:1024C400A072FFF725FD04F57D42E83204F57C4453
:1024D40090B23C340090F0234FF4A07201214FF4E9
:1024E4009B70A5B2FFF714FD0095F0234FF4A07282
:1024F400E6210120FFF70CFD03B030BD2DE9F047C4
:102504001D46089B0C46642BA8BF6423002123EAC4
:10251400E3789146EF2340F23F12C8EB08370646B2
:102524000846FFF7BDFCF84387B209F1FF30FDF719
:1025340031FF1D49FEF736F882464046FDF72AFF73
:1025440001465046FDF77AFF8046A4B2254440F286
:10255400FF70B6B2ADB2FFF783FC214630462B467E
:102564001FFA89F2FFF726FD0536691F0534A9F124
:1025740005001FFA86FAA6B28CB2FDF70BFF41469E
:10258400FEF718F958B14046FEF71EF9089723469E
:1025940082B231465046BDE8F047FFF7B9BC034963
:1025A4004046FDF741FEEFE70000C8420000A040AE
:1025B4002DE9F3472C4E04463146FFF7E1FB002892
:1025C4004DD1012221462948FFF7C8F9002848D1F6
:1025D400274F3D6802F06CF918B1022002B0BDE843
:1025E400F087386831680144FFF7FEFE0028F4D113
:1025F400204A2D215020FFF791FD4FF0640ADFF8A7
:102604007880DFF878901C494846FFF707FFD8F830
:10261400002049462846FFF725FF0028DDD1D8F8D9
:10262400003038681D44291A0AFB01F23468142367
:10263400B2FBF4F4184600944FF496726421FFF749
:102644005DFF2046FFF722FFD8F80040002CDAD1C6
:102654000648FFF784FB02F03DF92046BEE703205D
:10266400BCE70120BAE700BF14030020E800002003
:102674000400002054650008E40000204803002002
:102684002C4BF0B59A698BB042F0040098619969BB
:1026940001F004040194019A9D6945F008069E61C5
:1026A4009F6907F008020292029A986940F01001AB
:1026B40099619C6904F010050395039A9E6946F09C
:1026C40020079F619A694FF4006702F0200004908C
:1026D400049A9969184E41F040049C619B69002258
:1026E40003F040050595012530464FF40061059B34
:1026F40002F038FBCDE906750327A6F500643046E1
:102704004FF4007606A9099702F0DAF90022204670
:102714004FF4007102F026FB06A92046CDE90665B8
:10272400099702F0CDF92A463146204602F01AFBF9
:102734000BB0F0BD00100240001401404FF40052F1
:10274400094B0A495A61A3F5806C4FF48073CCF8A5
:102754001430C8604FF48040A1F5406250611061AC
:10276400CCF81030704700BF00140140001801403D
:102774004FF40052094B0A491A61A3F5806C4FF4D7
:102784008073CCF81430C8604FF48040A1F54062E7
:1027940050611061CCF81030704700BF0014014044
:1027A40000180140F0B544F203230124032585B049
:1027B40069461C48CDE90034039502F081F94FF4D1
:1027C4006840194ECDE9000469463046039502F08D
:1027D40077F94FF44071154FCDE900143846694636
:1027E400039502F06DF94FF0000C2022694638463B
:1027F400CDE9002C039502F063F94FF6FF736946A7
:102804000B4800930194039502F05AF922464FF4C1
:102814008041304602F0A6FA4FF40044346105B01A
:10282400F0BD00BF000C0140001401400010014045
:1028340000180140FFF7B6BF80B5012200AF184968
:102844000020FFF755F8174800F04EF9164803F03A
:10285400A1F9164B9A6922F004009861996921F054
:1028640008029A61986920F0100199619A6922F02E
:1028740020009861996921F040029A6101F00EFFED
:1028840000200B4B0B490C4A1860C3F8F81C136862
:10289400186880F308885968BD46BDE88040084739
:1028A4003C030020780D0020D00D002000100240D1
:1028B40010E000E0007000080400002070B5064637
:1028C4000024094D0821284603F028FA1E2001F0AF
:1028D4003FFF0821284603F053FA0134962001F003
:1028E40037FFA642EED170BDD00D002082B001901A
:1028F400019802B001F02CBF30B595B0342200210C
:1029040007A800F071FF0021142201A800F06CFF59
:102914004FF4E01001244FF4803304220225109078
:1029240006A8CDE90832CDE90E5306940B9402F0C3
:102934001FFA0F2100234FF4806CCDE9011501A883
:102944002146CDE9033C059302F068FC014A14607A
:1029540015B030BD7000424208B501F0D5FEFFF756
:10296400CBFFFFF78DFE00F0D5FDFFF733FD00F040
:102974005DF800F009FE00222520114601F00CFF4D
:10298400252001F03DFF00222320114601F004FF21
:10299400232001F035FFFFF71DFDFFF7DAFC0120CE
:1029A400FFF7CEFC00F0C2FE0020FFF765FA4FF4FB
:1029B400FC60FFF755FA184A1E216E20FFF7AEFBA4
:1029C4004FF6FF70FFF74CFA0020FFF74FFA4BF673
:1029D4004040FFF745FA0120FFF770FF01220F493D
:1029E4000F48FEF785FF01220C490D48FEF780FFD2
:1029F40040B90C48FFF7DCFD20B90320FFF75EFF68
:102A0400FFF71AFFFFF718FF0520FFF757FF41F202
:102A1400883001F09DFEF5E7646500083C03002062
:102A2400480B00206C6500087047000008B54FF49F
:102A340082730E480E4A4FF40071C0E900234FF030
:102A4400200C00230A22C0E90233C0E90433C0E9A0
:102A5400061CC0E908338362C26202F009FD18B1A2
:102A6400BDE80840FFF7E0BF08BD00BF780D0020B7
:102A74000030014010B5044686B01022002102A89F
:102A840000F0B2FE2268164B9A4227D103F560404B
:102A940081694FF0020C41F480548461826902F42C
:102AA40080530093009A816941F004048461806931
:102AB400A02100F004020192019B0323CDE9021C32
:102AC400084802A90593402401F0FAFF002002A956
:102AD400CDE902400490034801F0F2FF06B010BDB6
:102AE400003001400008014008B50268084B9A42D2
:102AF4000DD10848816921F480528261E0210648A1
:102B040002F0C0F8BDE80840232001F085BE08BDEE
:102B140000300140001002400008014008B54FF4A5
:102B240082730E480E4A0221C0E900234FF0010CC3
:102B340000234FF4007E0A22C0E90233C0E9041CDA
:102B4400C0E906E3C0E908338362C26202F090FC84
:102B540018B1BDE80840FFF767BF08BD100E00209C
:102B64000030014010B5044686B01022002102A8AE
:102B740000F03AFE2268164B9A4227D103F56040D2
:102B840081694FF0020C41F480548461826902F43B
:102B940080530093009A816941F004048461806940
:102BA400A02100F004020192019B0323CDE9021C41
:102BB400084802A90593402401F082FF002002A9DD
:102BC400CDE902400490034801F07AFF06B010BD3D
:102BD40000300140000801407FB50023ADF80E101D
:102BE40005930A4802F0CCFD01280346F9D141F2CD
:102BF40088320DF10E010092044805AA02F0C5FDC9
:102C0400BDF8140007B05DF804FB00BF100E0020EF
:102C140018B9034B1878C0B270470120704700BF41
:102C24001C00002007B58DF80700084802F0A8FD35
:102C340001280246F9D141F288330DF10701034816
:102C440002F05FFC03B05DF804FB00BF780D0020C8
:102C54001FB5FF2300208DF80E308DF80F000A48B1
:102C640002F08EFD01280346F9D141F288320DF1BC
:102C74000E01009204480DF10F0202F086FD9DF84A
:102C84000F0005B05DF804FB780D002013B5FFF7C5
:102C94008DFB0A24FF20013CFFF7C4FF14F0FF045E
:102CA400F8D12046FFF762FB40234FF41540009310
:102CB400ADF804001DF804000134FFF7B3FF062C3F
:102CC400F8D14FF40054FFF7C3FF012801D0013CB1
:102CD400F9D1FFF76BFBFF20FFF7A4FF01220249A4
:102CE4000A7002B010BD00BF2D03002038B5FFF7F5
:102CF400AFFF40F2F514FFF7ABFFFF28054606D0FF
:102D0400013C0120A4B2FFF7F1FD002CF3D12846C9
:102D140038BD38B504460D46FFF7E8FFFF2828D133
:102D24002046FFF77FFF280EFFF77CFFC5F307401F
:102D3400FFF778FFC5F30720FFF774FFE8B2FFF74A
:102D440071FF402C13D0482C14BF00208720FFF7BC
:102D540069FF4C2C01D1FFF77BFF0A24FFF778FFB2
:102D6400030603D5611E11F0FF04F7D138BD952089
:102D7400EDE7FF20FAE738B505460C46FFF7B6FF46
:102D8400FF282DD12046FFF74DFFFD2C26D0AC1C8B
:102D940005F2022514F8020CFFF744FF023414F87C
:102DA400030CFFF73FFFAC42F4D1FFF751FF41257D
:102DB400FFF74EFFFFF74CFF00F01F03052B0446FF
:102DC40001D0013DF6D1FFF743FF0028FBD004F00A
:102DD4001F00411F4A4242EB010038BD0024F6E7C0
:102DE4000020FAE770B505460E466524FFF730FF6C
:102DF400FF2808D10120013CFFF778FD14F0FF04FF
:102E0400F4D1002070BDFE28FBD10236AC1C354441
:102E1400FFF71EFF04F8020CFFF71AFF023404F850
:102E2400030CA542F4D1FFF713FFFFF711FF0120B4
:102E3400E8E7000073B5002840F0A280514B1C78ED
:102E44001E4614F0020403D01E78F0B202B070BD26
:102E5400FFF71CFF2046FFF789FA21464020FFF7C1
:102E640058FF012805462BD14FF4D5714820FFF7B0
:102E740050FF01284CD101ADFFF7EAFE285501347B
:102E8400042CF9D19DF80620012A19D19DF80730A8
:102E9400AA2B15D14FF47A7400217720FFF739FF5C
:102EA40001280FD90120FFF721FD4FF6FF71601EA5
:102EB40084B28C42F0D100217A20FFF72AFF58B166
:102EC400002517E04FF080416920FFF722FF00281A
:102ED400E8D1002CF4D0EEE70446FFF7B9FE2855FC
:102EE4000134042CF9D19DF8042012F0400F14BFD2
:102EF40006250225244B1D70FFF758FAFFF7A8FE9C
:102F0400002D39D0357805F0FE01317036789CE714
:102F140021467720FFF7FDFE012806D821466920C7
:102F2400FFF7F7FE012898BF02254FF47A74022DAB
:102F34004FF000011ED17720FFF7EBFE012810D9D6
:102F44000120FFF7D3FC4FF6FF71601E84B28C4260
:102F5400EDD14FF400715020FFF7DBFE0028AFD114
:102F6400C8E700216920FFF7D4FE0028E8D1002C2F
:102F7400A6D0EEE74120F6E7044801210570C4E736
:102F8400012063E71C0000202C0300202D030020F7
:102F940070B50D4616461C4600283FD1002B3DD087
:102FA4001F4B1978CA071DD41E48027853071FD532
:102FB4000020FFF7DBF9012C31461BD15120FFF72C
:102FC400A8FE38B94FF400712846FFF70BFFB0FA9A
:102FD40080F35C09FFF7EAF9FFF73AFE201C18BFFB
:102FE400012070BDFFF726FF0028DDD00320F8E79D
:102FF4007602DDE75220FFF78CFE0028EAD14FF479
:1030040000712846FFF7EEFE18B1013C05F5007586
:10301400F5D100214C20FFF77CFEDBE70420E0E73C
:103024001C0000202C030020F8B50D4616461C4653
:10303400002851D1002B4FD0284F3A78D30704D41D
:103044003B78590707D5022023E0FFF7F3FE002859
:10305400F6D003201DE0224F387842074FF00000DD
:1030640058BF7602FFF782F9012C13D1314658205C
:10307400FFF74FFE70BBFE212846FFF77CFEB0FA37
:1030840080F67409FFF792F9FFF7E2FD201C18BFE0
:103094000120F8BD39788B0707D500217720FFF789
:1030A40038FE21465720FFF734FE31465920FFF7FA
:1030B40030FE0028E6D1FC212846FFF75CFE18B15B
:1030C400013C05F50075F6D1FD210020FFF753FE04
:1030D4000028D7D10124D5E70420DAE71C0000201A
:1030E4002C0300207FB50C461546064638B9052941
:1030F40019D1107801280FD003D302280FD004244B
:1031040007E04B4D2C7824B101244A492E700C70F1
:103114003446204604B070BDFFF7B8FDF8E7444AD2
:1031240013786B70F4E7434B1978CB070DD4002068
:10313400FFF71CF90D2C78D8DFE804F0510D4C771B
:1031440077777777777777586669FFF773FE002884
:10315400EDD00324DDE700214920FFF7DAFD044622
:1031640028B10124FFF722F9FFF772FDD1E71021FE
:103174006846FFF737FE0028F3D09DF800109DF84D
:103184000960880901289DF8083006D1013606EB4C
:10319400032399B28E022E60E4E79DF807C09A09D2
:1031A4009DF806309DF80500990202EB8C029DF80B
:1031B4000A3001F4406E00F00F0C013276007244C4
:1031C4000CEBD31106F0060E8E44AEF107008240DC
:1031D4002A60C7E74FF400722A800024C2E7FFF791
:1031E40085FDB0F1FF0418BF0124BBE7002149208D
:1031F400FFF78FFD0028B4D110212846FFF7F2FD18
:10320400B0FA80F04409ADE700214A20F0E700213C
:103214007A20FFF77EFD0028A3D12C1DFFF718FDAF
:1032240005F8010BAC42F9D1D7E704249AE700BFB3
:103234002D0300201C000020114B07B59A6942F0B1
:1032440001009861996901F001020092009AD8691D
:1032540040F08051D961DB690F2103F08052019263
:103264006FF001000022019B01F096FA05484168C5
:1032740021F0E06C4CF00073436003B05DF804FB94
:103284000010024000000140704700002DE9F84F93
:10329400D0E90476D0E900BAD0E90298D0E906541E
:1032A400204800F0C3FB59461F4800F04BFB514631
:1032B4001E4800F047FB49461D4800F043FB4146C9
:1032C4001C4800F03FFB39461B4800F03BFB3146ED
:1032D4001A4800F037FB2946194800F033FB214611
:1032E400184800F02FFB184B1848196800F02AFB07
:1032F4001748184F0168184800F024FB174918486C
:10330400096800F01FFB174A17481168174E00F0B0
:1033140019FB3968164800F015FB716A154800F06E
:1033240011FBFEE777650008A4650008AE65000898
:10333400B8650008C2650008CC650008D7650008B8
:10334400076600082866000838ED00E033660008C8
:1033540028ED00E03CED00E03F6600082CED00E0C5
:103364004B66000830ED00E05766000800ED00E011
:10337400636600086F6600081EF0040F0CBFEFF3CD
:103384000880EFF30980FFF781BF04205FEA0E0194
:10339400084202D0EFF3098001E0EFF308804169AD
:1033A40000BE7047FEE7FEE7FEE7704770477047D0
:1033B40001F0BCB9014802F071B900BF780D0020DA
:1033C400014802F0E9BE00BF680E002070B50E4649
:1033D40015460C46A31B9D4201DC284670BDAFF385
:1033E400008004F8010BF5E770B50E4615460C464F
:1033F400A31B9D4201DC284670BD14F8010B00F0AC
:103404001BF9F5E708B50A4B0246196809B90948DA
:103414001860EC4618680244624506D900F0BAF90F
:103424000C2202604FF0FF3008BD1A60FCE700BFB9
:1034340030030020D00E00204FF0FF3070474FF4CF
:10344400005300204B6070470120704700207047F4
:10345400124B1A6842F0010018605968104A0A4079
:103464005A60186820F0847121F480321A60186858
:1034740020F4802119605A6822F4FE00586019680B
:103484004FF47F0021F0A05200211A604FF0006237
:103494009860D962034B9A60704700BF00100240E5
:1034A4000000FFF000ED00E0036882B0B3F1804F4C
:1034B4000AD103F50430C26942F00101C161C36954
:1034C40003F001000190019B02B0704710B504465F
:1034D40086B01022002102A800F086F92368B3F117
:1034E400804F13D103F50430826942F004018161F5
:1034F40084690222042004F004030193CDE902024A
:1035040002A90348019B059201F0DAFA06B010BD46
:103514000008014010B500248AB021461C2203A8EB
:10352400CDE9014400F060F94FF0804345F6B471F1
:103534001448C0E900348460C0E90314846102F0D3
:103544006DFB08B1FFF770FA602001A9CDE9010411
:103554000C4802F05BFC08B1FFF766FA3022012444
:103564000023CDE9032403A9082206480593079301
:1035740002F09AFB08B1FFF757FA0248FFF7A6FFDB
:103584000AB010BDD00D002008B500214FF4E1337E
:103594004FF00C0C0848094AC0E90211C0E90023A5
:1035A4000161C0E905C1C16102F02CFD18B1BDE89B
:1035B4000840FFF739BA08BD680E00200038014002
:1035C40010B5044686B01022002102A800F00CF9C0
:1035D4002268174B9A4229D103F5584081694FF06C
:1035E400020C41F480448461826902F480430093B4
:1035F400009A816941F00404846180694FF4007188
:1036040000F004020192019B0323CDE9021C094846
:1036140002A905934FF4806401F052FA002002A934
:10362400CDE902400490034801F04AFA06B010BD07
:10363400003801400008014007B502A941F8040D13
:103644004FF6FF730122034802F00AFD019803B00C
:103654005DF804FB680E0020002370B50B70002891
:1036640034D00478002C31D0802232EA0406DDB252
:1036740003F101032BD0002D14BF2B4601230B7043
:10368400037823EA02024A6002460132161A5FFAFC
:1036940086FC65454C681DD800221825134805FB97
:1036A40002F31E58A6421CD803445E68A64218D3EF
:1036B400187C5E7C1D7A46435A7A0D725D69DB681C
:1036C4004A72641BF21004FB0230C86070BD42EA07
:1036D4005202CAE7167806F03F0C4CEA84144C6098
:1036E400D3E70132052ADAD1F0E700BF9866000873
:1036F40000224FF40071014801F034BB000C01407A
:1037040008B9FFF7F5BF01224FF40071014801F039
:1037140029BB00BF000C0140014608B50248FFF771
:103724005BFAC0B208BD00BF100E002008B5FFF759
:10373400F5F90448FFF716FABDE808400120FFF741
:10374400DFBF00BF100E002070B50D4614460646BC
:10375400FFF7CEFF0320FFF7DFFFC5F30740FFF7B6
:10376400DBFFC5F30720FFF7D7FFE8B2FFF7D4FF6D
:103774004FF6FF75013CA4B2AC4204D1BDE87040E1
:103784000120FFF7BDBFFF20FFF7C6FF06F8010BBE
:10379400F0E70000014B1868704700BF24000020C8
:1037A40070B500250C4E0D4CA41BA410A54209D1E4
:1037B40002F064FE00250A4E0A4CA41BA410A54284
:1037C40005D170BD56F8253098470135EEE756F817
:1037D400253098470135F2E7B0670008B067000864
:1037E400B0670008B467000803460244934200D15E
:1037F400704703F8011BF9E738B50546002943D0A3
:1038040051F8043C0C1F002BB8BFE41800F0C4FBB3
:103814001E4A1368104633B9636014602846BDE835
:10382400384000F0BABBA3420BD921686218934216
:1038340001BF1A685B685218226063600460EDE798
:1038440013465A680AB1A242FAD919685818A04214
:103854000BD120680144581882421960DED11068E7
:103864005268014419605A60D8E702D90C232B60CE
:10387400D4E7206821188A4201BF116852680918E8
:10388400216062605C60C9E738BD00BF340300207A
:1038940070B5CD1C25F0030508350C2D38BF0C255B
:1038A400002D064601DBA94203D90C233360002016
:1038B40070BD00F071FB214A1468214691B9204C77
:1038C40023681BB9304600F0B9F820602946304619
:1038D40000F0B4F8431C24D10C233046336000F0CC
:1038E4005CFBE4E70B685B1B18D40B2B0FD90B6054
:1038F400CC18CD50304600F050FB04F10B00231DD2
:1039040020F00700C31AD3D05A42E250D0E74B68E4
:103914008C4216BF636013600C46EBE70C464968A3
:10392400CCE7C41C24F00304A04205D0211A30467D
:1039340000F084F80130CFD02560DBE734030020A9
:10394400380300200FB40A4B13B51C6824B1A369D3
:1039540013B9204600F032FA05AB049AA168204658
:10396400019300F043FB02B0BDE8104004B070477F
:103974002400002070B50E46054618B183690BB9C2
:1039840000F01CFAAB69AC6813B9284600F016FACB
:10399400234B9C4217D16C68A3891B071DD523694F
:1039A400DBB1013EA36816F8011F013BA360E9B92E
:1039B400002B2EDA22460A21284600F04FF8013067
:1039C40011D00A2011E0174B9C4201D1AC68E3E707
:1039D400154B9C4208BFEC68DEE72146284600F000
:1039E4008FF80028DDD04FF0FF3070BD002B04DAD3
:1039F400A2699A4206DC0A2904D023685A1C226070
:103A04001970CFE72246284600F028F80130C9D1C2
:103A1400E9E70A2023685A1C22601870E5E700BF12
:103A2400346700085467000814670008024B014615
:103A34001868FFF79FBF00BF2400002038B500239B
:103A4400054C054608462360FFF7DCFC431C02D105
:103A5400236803B12B6038BDA80E0020F8B50E46CC
:103A64001446054618B183690BB900F0A7F9214B38
:103A74009C422AD16C68A369A360A3891A072ED536
:103A8400236963B323692068F6B2C01A63693746B1
:103A9400834204DC2146284600F026F928BBA368AB
:103AA4000130013BA36023685A1C22601E706369C5
:103AB400834204D0A389DB0719D50A2E17D12146E6
:103AC400284600F011F990B10FE00B4B9C4201D154
:103AD400AC68D0E7094B9C4208BFEC68CBE72146B1
:103AE400284600F00DF80028CCD04FF0FF373846B8
:103AF400F8BD00BF34670008546700081467000865
:103B0400324B70B51D6806460C4625B1AB6913B936
:103B1400284600F053F92E4B9C420FD16C68B4F93F
:103B24000C309AB215072CD4D00611D40922326075
:103B340043F04003A3814FF0FF303EE0254B9C420D
:103B440001D1AC68EBE7244B9C4208BFEC68E6E784
:103B5400510712D5616B41B104F14403994202D07B
:103B64003046FFF749FE00236363A38923F024034F
:103B7400A3810023636023692360A38943F00803BE
:103B8400A38123694BB9A38903F42073B3F5007FA0
:103B940003D02146304600F0BFF9A28912F0010398
:103BA4000CD00023A36063695B42A361236953B90A
:103BB400B4F90C3013F08000BAD170BD920758BF2D
:103BC4006369A360F2E70020F7E700BF2400002048
:103BD4003467000854670008146700088A892DE9CF
:103BE400F041054610070C4658D44B68002B05DC01
:103BF4000B6C002B02DC0020BDE8F081E66A002E8D
:103C0400F9D0002312F480522F68216A2B6032D03D
:103C1400606DA3895A0705D56368C01A636B0BB13D
:103C2400236CC01A00230246E66A216A2846B0477C
:103C3400431CA38906D129681D2948D8294ACA40AA
:103C4400D60744D5002262602269D904226004D5D3
:103C5400421C01D12B6803B96065616B2F60002998
:103C6400C9D004F14403994202D02846FFF7C4FDA9
:103C740000206063C0E701232846B047411CC8D137
:103C84002B68002BC5D01D2B01D0162B01D12F6022
:103C9400B1E7A38943F04003A381ADE70F69002F87
:103CA400A9D0930718BF00230E6808BF4B69A6EB81
:103CB40007080F608B60B8F1000F9CDD43463A465D
:103CC400216A2846A66AB047002806DCA38943F087
:103CD4004003A3814FF0FF308EE70744A8EB0008B0
:103CE400E9E700BF0100402038B50B6905460C46E2
:103CF400DBB118B183690BB900F060F80C4B9C423E
:103D040009D16C68B4F90C307BB121462846BDE872
:103D14003840FFF763BF074B9C4201D1AC68F1E721
:103D2400054B9C4208BFEC68ECE7002038BD00BF9F
:103D3400346700085467000814670008002310B5AE
:103D44000446C0E90033836081814366C281C0E9CF
:103D540004338361194608225C30FFF745FD054BA7
:103D640024626362044BA362044BE362044B236347
:103D740010BD00BF294500084B45000883450008D5
:103D8400A7450008014900F085B800BFED3C0008D4
:103D940070B568254A1E55430E4605F17401FFF7B8
:103DA40077FD044640B10021C0E900160C30A06044
:103DB40005F16802FFF718FD204670BD836910B550
:103DC400044633BBC0E912330365124B124A1B6825
:103DD4008262984204BF0123836100F01FF860608F
:103DE400204600F01BF8A060204600F017F80022DF
:103DF400E06004216068FFF7A1FF01220921A068A7
:103E0400FFF79CFF02221221E068FFF797FF0123CE
:103E1400A36110BD10670008893D0008F8B51B4B6D
:103E240007461E68B36913B93046FFF7C7FF483623
:103E3400D6E90134013B03D5336833B13668F7E77B
:103E4400B4F90C506DB16834F4E704213846FFF737
:103E54009FFF30600028F1D10C2304463B602046CC
:103E6400F8BD0B4B6566C4E90055A560C4E903358C
:103E7400C4E905550822294604F15C00FFF7B4FCA7
:103E8400C4E90D55C4E91255E9E700BF10670008FD
:103E94000100FFFF2DE9F84380468946002600F122
:103EA400480414B93046BDE8F883D4E90175013FEC
:103EB40001D52468F5E7AB89012B07D9B5F90E3094
:103EC400013303D029464046C84706436835EEE728
:103ED40070B50E46B1F90E1096B0002914461D4671
:103EE40007DA00232B60B3891A0610D44FF48063D9
:103EF4000EE06A4600F07CFB0028F2DB019A02F433
:103F04007042A2F500535A425A412A60EEE7402318
:103F14000020236016B070BD8B8973B59D070646DB
:103F24000C4607D504F14703236023610123636131
:103F340002B070BD01AB6A46FFF7CAFF009905469F
:103F44003046FFF7A5FC48B9B4F90C309A05EFD414
:103F540023F0030343F00203A381E3E70D4BB362B1
:103F6400A389206043F08003A381009B20616361E7
:103F7400019B5BB1B4F90E10304600F04BFB28B145
:103F8400A38923F0030343F00103A381A3891D4301
:103F9400A581CDE7893D000870477047936810B448
:103FA400013B002B936007DA9469A34201DB0A29E1
:103FB40002D110BCFFF752BD1368581C1060197071
:103FC400084610BC7047F8B506460F461446D51887
:103FD400AC4201D1002007E03A4614F8011B3046F8
:103FE400FFF7DCFF431CF3D1F8BD00002DE9F04FCF
:103FF4009DB00C4617460393064618B183690BB966
:10400400FFF7DCFE7B4B9C4257D17468A3891807E9
:104014005DD52369002B5AD00023099320238DF802
:10402400293030234FF0010B8DF82A30B84645462D
:1040340015F8013B0BB1252B54D1B8EB070A0BD073
:1040440053463A4621463046FFF7BDFF013000F0A3
:10405400C280099B5344099398F80030002B00F068
:10406400BA8000234FF0FF32CDE905230493079370
:104074008DF853301A93A846052218F8011B5E48A0
:1040840000F0EAFA049B78BBD90644BF20228DF8DD
:1040940053201A0744BF2B228DF853202A782A2A4A
:1040A4002AD0A84600200A25079A414611F8013B68
:1040B400303B092B69D960B324E0504B9C4201D1B9
:1040C400B468A3E74E4B9C4208BFF4689EE72146C0
:1040D4003046FFF715FD00289ED04FF0FF301DB08D
:1040E400BDE8F08FA846A2E7434A4546801A0BFA7A
:1040F40000F018430490BEE7039A111D126803915F
:10410400002A01DB079204E0524243F002030792C3
:10411400049398F800302E2B0ED198F801302A2BF6
:1041240038D1039B08F102081A1D1B680392002B67
:10413400B8BF4FF0FF330593324D032298F80010B7
:10414400284600F089FA40B14023401B03FA00F0EE
:10415400049B08F101080343049398F80010062215
:10416400294808F101078DF8281000F075FA002895
:1041740037D0264B1BBB039B073323F007030833BD
:104184000393099B4B44099350E705FB023201203A
:1041940088468AE700230A25194608F10108059391
:1041A400404610F8012B303A092A03D9002BC3D01A
:1041B4000591C1E705FB012101238046F0E703AB2C
:1041C40000932246124B04A93046AFF30080B0F1AD
:1041D400FF3F8146D5D1A3895B063FF57EAF0998A1
:1041E4007DE703AB00932246094B04A9304600F057
:1041F40087F8ECE734670008746700085467000820
:10420400146700087A6700087E6700080000000051
:10421400CB3F00082DE9F04791461F468A680B6999
:1042240006469342B8BF1346C9F8003091F84320BC
:104234000C46DDF8208012B10133C9F80030236840
:10424400990642BFD9F800300233C9F80030256816
:1042540015F0060507D104F1190AE368D9F800201E
:104264009B1AAB4229DC94F843302268003318BF10
:10427400012392062ED404F1430239463046C04746
:10428400013021D02368E56803F00603042B18BF2E
:104294000025D9F800204FF0000908BFAD1AA36823
:1042A400226908BF25EAE5759342C4BF9B1AED183D
:1042B4001A344D451AD1002008E0012352463946EC
:1042C4003046C047013003D14FF0FF30BDE8F087DE
:1042D4000135C2E73020E11881F843005A1C94F8F4
:1042E40045102244023382F84310C4E701232246D6
:1042F40039463046C0470130E6D009F10109D8E714
:104304002DE9F04301F1430C0C46097E85B06E297A
:104314001746064698460C9A00F0B38022D86329C3
:1043240036D00AD8002900F0B980582900F08380DB
:1043340004F1420584F8421032E0642901D069296D
:10434400F6D120681368050603F104012AD51B6819
:104354001160002B03DA2D225B4284F843206F485E
:104364000A2239E0732900F09D8008D86F2920D0F3
:104374007029DDD1236843F02003236003E075290D
:1043840017D07829D4D17823654884F8453055E08E
:10439400136804F14205191D1B68116084F842304A
:1043A40001238CE01B6810F0400F116018BF1BB292
:1043B400CFE713682568181D1060280601D51B680F
:1043C40002E06806FBD51B886F2914BF0A22082265
:1043D4005248002184F843106568002DA560C0F29E
:1043E4009580216821F004012160002B3DD1002D2E
:1043F40040F08E806546082A0BD12368DB0708D578
:10440400236962689A42DEBF302305F8013C05F156
:10441400FF35ACEB05032361CDF800803B4603AACE
:1044240021463046FFF7F6FE01304DD14FF0FF3004
:1044340005B0BDE8F083394884F845101368216855
:104444001D1D1B6815600A060BD5CA0744BF41F041
:10445400200121601BB9226822F020022260102270
:10446400B7E74D0648BF9BB2EFE76546B3FBF2F1F1
:1044740002FB1133C35C05F8013D0B460029F5D15D
:10448400B9E713682568181D6169106028061B6860
:1044940001D5196002E06A06FBD519800023654640
:1044A4002361B9E71368191D11601D686268002152
:1044B400284600F0D1F808B1401B606063682361AE
:1044C400002384F84330A7E723692A463946304657
:1044D400C0470130AAD023689B0713D4E068039B2C
:1044E4009842B8BF1846A3E701234A4639463046E6
:1044F400C04701309AD00135E368039A9B1AAB4256
:10450400F2DCEBE7002504F11909F5E7002BACD147
:10451400037804F1420584F842306CE785670008AB
:104524009667000810B50C46B1F90E1000F0A2F819
:104534000028ABBF636DA3891B1823F48053ACBF61
:104544006365A38110BD2DE9F0411F468B890546A3
:10455400DB050C46164605D502230022B1F90E10E0
:1045640000F068F8A389324623F48053A381B4F998
:104574000E103B462846BDE8F04100F017B810B5D0
:104584000C46B1F90E1000F055F8431CA38915BF71
:10459400606523F4805343F48053A38118BFA3813F
:1045A40010BDB1F90E1000F013B8000038B505467F
:1045B400084611460022054C22601A46FEF714FFF5
:1045C400431C02D1236803B12B6038BDA80E002020
:1045D40038B50023054C054608462360FEF72CFF3A
:1045E400431C02D1236803B12B6038BDA80E002000
:1045F40038B50023064C0546084611462360FEF7ED
:104604001EFF431C02D1236803B12B6038BD00BFD9
:10461400A80E002038B50023054C05460846236043
:10462400FEF712FF431C02D1236803B12B6038BD8F
:10463400A80E002038B50546084611460022054C50
:1046440022601A46FEF702FF431C02D1236803B11D
:104654002B6038BDA80E002010B5C9B202449042A8
:10466400034601D1002303E01C7801308C42F6D1CB
:10467400184610BD38B50546084611460022054CBB
:1046840022601A46FEF7A2FE431C02D1236803B13E
:104694002B6038BDA80E00207047000010B54FF005
:1046A400FF320024054BDA601C61DA60DC609A6238
:1046B4009C62FFF7F1FF204610BD00BF00100240CE
:1046C4004FF47A7138B50D4B054618780C4AB1FB96
:1046D400F0F41368B3FBF4F000F0ACF8044658B9F6
:1046E4000F2D09D8024629464FF0FF3000F054F848
:1046F40004480560204638BD0120FCE788000020FE
:10470400200000208C000020074A08B5136843F0FD
:1047140010001060032000F02DF80F20FFF7D0FFE9
:10472400FEF78AFD002008BD00200240034A044B26
:104734001168187808441060704700BFAC0E002060
:1047440088000020014B1868704700BFAC0E0020A1
:1047540038B50446FFF7F6FF0546631C1EBF044B3D
:104764001B78E418FFF7EEFF401BA042FAD338BDD4
:1047740088000020074A0002D36823F4E0610B0498
:10478400190C41F0BF6C4CF4003300F4E0610B43AE
:10479400D360704700ED00E0174B30B5DC684FF094
:1047A400FF3CC4F30224C4F10703042B04F1040501
:1047B40028BF0423062D98BF00240CFA03F388BFF6
:1047C400033C21EA0301A1400CFA04F422EA0405A3
:1047D400002841EA0501A8BF00F160404FEA011337
:1047E400B8BF064AD9B2B5BF00F00F0000F561406A
:1047F400115480F8001330BD00ED00E014ED00E02A
:104804000123420900F01F0003FA00F1014840F8B7
:104814002210704700E100E00122430900F01F006C
:1048240002FA00F10248203340F82310704700BF19
:1048340000E100E00138B0F1807F0AD2F021064B9C
:10484400064A586082F823100020072298601A60F4
:1048540070470120704700BF10E000E000ED00E069
:10486400114AD36813F0100305D01049C86940F009
:104874000203CB611023D268500706D50B4943F0DD
:104884000403C86940F00102CA61074AD169C90733
:1048940008D50648C16941F00401C161D06920F01E
:1048A4000101D161D360704700200240B00E0020A6
:1048B400064B186910F0800007D0054A02F18831D0
:1048C4005A6059601B69C3F3C0107047002002404E
:1048D40023016745034A136943F0800010610020F7
:1048E400704700BF00200240F8B50646FFF72AFFD4
:1048F400114C07462546E368D80712D4E0688106C0
:1049040044BF2020E060E968CA0606D4EA69D307F8
:1049140003D4EC6814F0040007D0FFF7A1FF0120D2
:1049240003E0731CE7D00EB90320F8BDFFF70AFFBC
:10493400C31BB342DFD9F7E7002002402DE9F84F4B
:10494400254C1E46237E0546012B0F46904640D03B
:10495400012020764CF25030FFF7C6FFA8BB012D92
:1049640003D0022D0CBF022504254FF00009CB46CD
:10497400DFF868A04FEA091CCCF12001C4F81CB090
:10498400ACF1200206FA01F028FA0CF326FA02F13F
:104994000343DAF810200B431FFA83FE42F00103AD
:1049A400CAF810304CF2503027F819E0FFF79CFF9A
:1049B400DAF8101021F00102CAF8102028B909F120
:1049C40001095FFA89FC6545D4D800252576BDE840
:1049D400F88F0220FBE700BFB00E00200020024049
:1049E4000022064B0648DA61016941F004030361C1
:1049F400026942F040010161704700BFB00E00201F
:104A0400002002400022064B0649DA610B6943F09C
:104A140002020A614861086940F040030B61704773
:104A2400B00E0020002002402DE9F041224D07463F
:104A34002B7E8846012B3DD0012401682C76022967
:104A44004CF2503013D1FFF74FFF20B10120002367
:104A54002B76BDE8F081FFF7C3FF4CF25030FFF72F
:104A640043FF164A146924F004071761EFE7FFF7C0
:104A74003BFF0028EAD14FF0FF30C8F80000BE68C1
:104A840020460E4CD7E902C20CEBC22EB645DED945
:104A94003046FFF7B7FF4CF25030FFF725FF23698C
:104AA40023F00201216110B1C8F80060CFE706F5D8
:104AB4000066E7E70220CCE7B00E002000200240A9
:104AC4002DE9F74F00221646664BDFF8A8C1DFF840
:104AD400A8E101240D6804FA06F808EA0504A045D3
:104AE4007ED14D68122D00F0AE8000F28780022D39
:104AF40000F0A6807BD8002D00F08D80012D00F001
:104B04009D804FF00F09FF2C93BF824606F180452C
:104B1400083DB5008ABFAD00D0F800B0D0F804B0AD
:104B240009FA05F72BEA070702FA05F888BF00F12E
:104B3400040A47EA0805CAF80050D1F804A01AF09C
:104B4400805F4DD0484F26F0030BBD690BF18048C0
:104B540045F00105BD61BF6906F0030B07F00105CF
:104B6400019508F58037019D4FEA8B0BBD6809FA62
:104B74000BF925EA09083D4DA84269D005F580697D
:104B8400484568D009F58065A84267D005F5806579
:104B9400A8420CBF4FF003094FF0040909FA0BF9BE
:104BA40049EA0805BD601F681AF4803F14BF274313
:104BB400A7431F605D681AF4003F14BF2543A54353
:104BC4005D609F681AF4801F14BF2743A7439F604A
:104BD400DD681AF4001F14BF2C4325EA0404DC60CA
:104BE4000136102E7FF475AF03B0BDE8F08F032DAE
:104BF40022D0112D85D1CA68043282E71C4FBD42F0
:104C040009D012D8DFF874904D4504D009F58039E5
:104C14004D457FF476AF8A68C2B1012A0CBFC0F853
:104C24001080C0F8148008226BE76545F3D0754501
:104C3400F1D0DFF84C90EBE7002262E7CA6860E746
:104C4400CA6808325DE7CA680C325AE7042258E79A
:104C54004FF00009A2E74FF001099FE74FF0020966
:104C64009CE700BF0004014000100240000801401E
:104C7400000021100000311000003210000011105B
:104C8400000022102DE9F04F00224FF001094FF0EF
:104C94000F0E4FF0040A304CDFF8C4B031FA02F3BF
:104CA40001D1BDE8F08F09FA02F30B404CD0FF2B81
:104CB40098BF07466FEA030385BF02F18045083DAC
:104CC400D0F800C0D0F804C094BF9500AD000EFA2F
:104CD40005F62CEA06060AFA05F588BF071D2E43D9
:104CE4003E60C76822F0030808F1804C1F40C7608B
:104CF4000CF5803502F00307AE68BF000EFA07F822
:104D040008EA060C154EB04220D006F58066B04283
:104D14001ED006F58066B0421CD058450CBF032651
:104D24000426BE4066450FD1AE6826EA0806AE608A
:104D340025681D40256066681E406660A5681D40A4
:104D4400A560E5682B40E3600132A7E70026E8E7A9
:104D54000126E6E70226E4E70004014000080140DA
:104D6400001401400AB1016170470904FBE7000027
:104D740003682DE9F341DB07054614D42B689F072C
:104D840062D42C68210700F199802F687A0700F11A
:104D9400C380EE6A002E40F031812E6A002E40F06E
:104DA4008481002014E0904C606800F00C01042918
:104DB40007D0626802F00C06082E0CD16768FE0367
:104DC40009D52468A403D9D5AE68002ED6D1012014
:104DD40002B0BDE8F081AB68B3F5803F10D1206824
:104DE40040F480362660FFF7ADFC0746216888034F
:104DF400C4D4FFF7A7FCC21B642AF7D90320E7E752
:104E04009BB9236823F480302060216821F4802238
:104E14002260FFF797FC06462768B903AED5FFF773
:104E240091FC831B642BF7D9E8E7B3F5A02F206826
:104E340003D140F480272760D1E720F4803121603A
:104E4400226822F48026CDE7674C606810F00C0FCE
:104E540007D0676807F00C01082910D16268D203F3
:104E64000DD42768BB0702D569690129AFD123682E
:104E7400AA6923F0F80646EAC200206081E76E6959
:104E84005A4B6EB101221A60FFF75CFC0646236898
:104E94009F07ECD4FFF756FC801B0228F7D9ADE737
:104EA4001E60FFF74FFC0746206880077FF569AF57
:104EB400FFF748FCC11B0229F6D99FE7EF694A4C6A
:104EC4004B49DFB101200860FFF73CFC0646676AE6
:104ED400BB070DD54FF4FA5446490B68B3FBF4F6FF
:104EE400019600BF0198421E01920028F9D14CE7B7
:104EF400FFF728FC801B0228E9D97FE70F60FFF742
:104F040021FC0646636A9F077FF53FAFFFF71AFC53
:104F1400821B022AF6D971E7334CE169CE0024D40E
:104F24000127E36943F08056E661E06900F08052AE
:104F34000092009B304E3168C80518D52E69012EA9
:104F440026D1206A40F001022262FFF7FBFB41F206
:104F540088368046226A92073FD5002F3FF419AF66
:104F6400E16921F08057E76113E70027E2E733683E
:104F740043F480703060FFF7E5FB80463268D1056A
:104F8400DCD4FFF7DFFBA0EB08016429F6D935E791
:104F9400AEB9216A41F2883821F001032362206A04
:104FA40020F004022262FFF7CDFB0646216A8B073C
:104FB400D3D5FFF7C7FB831B4345F7D91EE7052E5F
:104FC400216A03D141F004062662BAE721F0010305
:104FD4002362206A20F00402B6E7FFF7B3FBA0EBDC
:104FE4000803B342B6D909E7001002400000424268
:104FF4008004424220000020007000404F4C63684F
:10500400D80308D5606800F00C02082A03D1E16ACD
:10501400C9033FF5DCAE022E33D12668F20006D573
:10502400E36A6A6B03F0F00090427FF4D0AE00278D
:10503400434E3760FFF786FB074621680B011AD4FD
:10504400E36A6A6B23F0F0001043E0620120E76A30
:105054002B6B27F470611943E1623060FFF772FB38
:105064000646226817013FF598AEFFF76BFB801BDD
:105074006428F6D9C2E6FFF765FBC21B642ADCD9B3
:10508400BCE60020E76A2E4B27F48036E6621860FF
:10509400FFF758FB0746226810017FF57EAEFFF745
:1050A40051FBC11B6429F6D9A8E6244C676807F0B4
:1050B4000C0108293FF48BAE0023022E214E3360ED
:1050C4002FD1FFF73FFB07462168890123D46F6A7C
:1050D400B7F5803F09D1E36A68680343E362E26A93
:1050E400E96822F00F030B43E362AD6A60682F4363
:1050F40020F474121743676001273760FFF722FB1F
:1051040005462668B2013FF54CAEFFF71BFB431B77
:10511400022BF6D972E6FFF715FBC11B0229D3D97E
:105124006CE6FFF70FFB0546206883017FF539AE77
:10513400FFF708FB421B022AF6D95FE60010024083
:105144006800424260004242F0B589B069462D4B86
:1051540003F108050A4618685968083303C2AB42CC
:105164001146F7D118689C88274E106094800DF181
:10517400100C06F11007644630687168083603C4E1
:10518400BE42A446F7D1214D6B6803F00C02042AF9
:1051940035D0082A02D01E4809B0F0BDC3F38341BC
:1051A40008A80144DB0311F8206C25D5EF6AEB6AEB
:1051B40007F00F04044413F4803F14F810CC154A8C
:1051C40015D0EF6AE96AC7F30313C1F30324023469
:1051D400A4FB0645A4FB0201013302FB0511A3FB5A
:1051E4000C23FBF711FB0D2ED6D14008D4E702FBAC
:1051F40006F5B5FBFCF0F6E707487043CCE7054835
:10520400CAE700BF98640008A664000800100240C2
:1052140000127A0040787D0100093D00544A2DE9CE
:10522400F0411368054603F0070088420E462AD36E
:1052340029688C0734D4CA0747D44D4C276807F033
:105244000700B04200F281802E684A4F16F0040F26
:1052540040F08680330706D57C682D6924F46052BB
:1052640042EAC5067E60FFF76FFF7F68424BC7F3D3
:10527400031C13F80C10414CC84020600F20FFF7AA
:105284001FFA00200AE0116821F007043443146077
:10529400176807F00708B045CAD00120BDE8F081BF
:1052A400344B11F0040F1EBF5A6842F4E0625A6096
:1052B400080742BF5A6842F460525A605A68A868A4
:1052C40022F0F00404435C60B5E76F68294C012FB9
:1052D40021681BD111F4003FDFD0636841F28838A4
:1052E40023F003023A436260FFF72CFA074668682A
:1052F400012813D1636803F00C02042A9DD0FFF740
:1053040021FAC01B4045F5D90320C7E7022F02D17B
:1053140011F0007FE0E711F0020FDDE702280FD162
:10532400626802F00C00082887D0FFF70BFAC11B53
:105334004145F5D9E8E7FFF705FAC31B4345E3D830
:10534400616811F00C0FF6D177E7216821F00703AB
:1053540033432360226802F00704B4429DD173E70B
:105364007868E96820F4E0630B437B6072E700BF70
:105374000020024000100240806600082000002047
:10538400044B054A5868C0F302210448535C006882
:10539400D8407047001002409066000820000020AA
:1053A400044B054A5868C0F3C2210448535C0068A2
:1053B400D84070470010024090660008200000208A
:1053C4002DE9F0410446884617461D46069E22688C
:1053D400936838EA03000CBF01200020874201D102
:1053E40000202DE06B1CF3D065BB236865685A6808
:1053F400B5F5827F22F0E00058600AD1A668B6F5C0
:10540400004F02D0B6F5806F03D11F6827F040012A
:105414001960A26AB2F5005F09D1186820F400553A
:105424002E04370C1F60196841F400521A604FF0C3
:10543400010C4FF00008032084F851C084F8508018
:10544400BDE8F081FFF77EF9811BA942BFD3CCE709
:1054540013B50B460092802100220446FFF7B0FFEB
:1054640020B1636D43F020006065032002B010BDDD
:1054740038B50446002842D090F8513003F0FF02BA
:105484001BB980F85020FDF7F5FA0220216884F852
:1054940051000D68A06A25F040030B60D4E9013582
:1054A4002B43E568A2692B432569B0F5005F43EA05
:1054B4000503656943EA0503E56943EA0503256ACB
:1054C40043EA050343EA000302F4007543EA0503D3
:1054D4000B604FEA1242636A02F0040545EA0305D1
:1054E40008BFE36A4D6008BF0B61C86920F400621D
:1054F400CA6100200121606584F8511038BD012083
:10550400FCE72DE9FF411E4690F850300446012B7C
:105514000D46904600F0BE80012084F85000FFF74D
:1055240011F994F851100746C8B2012840F0B08030
:10553400002D63D0B8F1000F60D000230322A068CF
:1055440084F85120A3636365A387A4F83680C4E973
:105554001033E3872368B0F5004F08BF1868A16AC9
:1055640008BF40F480402563A4F8348008BF186065
:10557400B1F5005F09D11A6822F4005001040A0C45
:105584001A60186840F4005119601A68E1685006FE
:1055940058BF186862685CBF40F040001860B1F5FD
:1055A400006F3CD11AB1E08E82B2012A0AD135F8DB
:1055B400021BD960B4F836C00CF1FF3E1FFA8EF816
:1055C400A4F83680E38E98B290B90097334601224E
:1055D40002212046FFF7F4FE78B93A4631462046C8
:1055E400FFF736FF00283CD020230120636505E047
:1055F400236898688007DAD44EB903200125002671
:1056040084F8515084F8506004B0BDE8F081711CF6
:10561400D8D0FFF797F8C11BB142D3D3EDE71AB145
:10562400E08E82B2012A0AD115F8011B1973B4F86D
:1056340036C00CF1FF3E1FFA8EF8A4F83680E38ED4
:1056440098B20028C1D023689A689207ECD4002E3F
:10565400D3D0731CF3D0FFF775F8C11BB142EED35E
:10566400CBE7A56835B926680395F2680392B76855
:105674000397039BA16AB1F5005F01BF226811681B
:1056840041F480511160626D101C18BF0120B5E710
:105694000220B3E70220B7E770470000036830B583
:1056A40059689A6885B002F04105012D044606D177
:1056B4004D0604D5016C05B0BDE83040084790079D
:1056C40004D50D0602D5616C2046F4E712F0600F94
:1056D40046D0880644D555060ED594F851000025C9
:1056E400032837D0606D40F0040060650195DD68E3
:1056F400019598680190019890060CD50020626D80
:1057040042F00105656503909A6803921D6825F0CF
:1057140040001860039A626D12B34FF0010C5D688B
:105724008A0725F0E000586084F851C01AD05968FF
:10573400E06C21F003025A6018B10C4B436300F093
:10574400D5FDA06C60B1094C446305B0BDE83040A0
:1057540000F0CCBD0295DC6802949B680293029B26
:1057640005B030BD2046FFF797FFF9E775570008ED
:1057740008B50023406AC387C386FFF78DFF08BDC1
:1057840090F851007047012070472DE9F043994685
:105794000023044690F8500085B001280D46904639
:1057A4000C9EADF80A3000F07B81012184F8501082
:1057B400FEF7C8FF94F851200746D3B2012B616865
:1057C4000AD0B1F5827F40F06881A068002840F0DB
:1057D4006481042B40F06181002D00F04981B8F10F
:1057E400000F00F04581B9F1000F00F0418194F8F9
:1057F40051200023012A08BF0522A06A08BF84F8AB
:105804005120B0F5005F6365C4E91033A4F83E90FD
:10581400C4F83880A4F83C902563A4F83690A4F822
:105824003490236809D11A6822F400500204100C41
:1058340018601A6842F4005018601A68500658BF7D
:105844001A68E0685CBF42F040021A60B0F5006F6D
:1058540078D119B1E08E82B2012A0AD135F8021B3F
:10586400D960B4F836E00EF1FF3C1FFA8CF9A4F8C5
:1058740036904FF00109E38E98B2B0B9E28F91B23D
:1058840099B9A56AB5F5005F40F0C680012200977A
:10589400334611462046FFF793FD002800F0B580FB
:1058A400626D42F0020161653DE0B9F1000F21D063
:1058B400B4F836E01FFA8EF3E3B1206882689107EA
:1058C40018D535F8021BC160B4F836C00CF1FF39A5
:1058D4001FFA89FEA4F836E0E38E1FFA83F9B9F1C2
:1058E400000F2CD1A26AB2F5005F03D1016841F424
:1058F40080530360E08F82B272B121688B68DA074B
:105904000AD54FF00109C86828F8020BB4F83EC064
:105914000CF1FF3291B2E187701CACD0FEF712FF9C
:10592400C31BB342A7D34FF003080126002784F812
:10593400516084F85070404605B0BDE8F0834FF0E4
:105944000009D7E719B1E18E8AB2012A0AD115F804
:10595400010B1873B4F836C00CF1FF3E1FFA8EF930
:10596400A4F836904FF00109E38E99B219B9E28F89
:1059740090B2002885D0B9F1000F28D0B4F836C011
:105984001FFA8CF31BB32068816889071FD5691C33
:105994002D780573B4F836E00EF1FF321FFA82F960
:1059A400A4F83690B4F836C01FFA8CF9B9F1000F98
:1059B4000AD1A36AB3F5005F04D12068056845F4F1
:1059C400805202600D4602E00D464FF00009E18F5F
:1059D4008BB293B120688268D2070ED5C16808F1F2
:1059E400010808F8011CB4F83EE00EF1FF391FFA73
:1059F40089FC4FF00109A4F83EC0731CB4D0FEF733
:105A0400A1FEC31BB342AFD38DE72368D86882B22B
:105A1400ADF80A20BDF80A3021688D6815F0100829
:105A240014D02046FFF7AFFE0128236823D1804617
:105A3400626D42F0020161651D6825F40052110493
:105A44000D0C1D601A6842F400511960009733462A
:105A5400012202212046FFF7B3FC00287FF463AF44
:105A64003A4631462046FFF7F3FC50B120256565E0
:105A74004FF0010859E74FF6EF704FF000089860B7
:105A8400E4E7A668002E7FF450AF27680396FB680E
:105A94000393B8680390039B47E74FF0020844E779
:105AA4004FF0020847E70000036A70B523F00102D3
:105AB4000262066A446885690B6825F073020D4D1D
:105AC4001A4326F002038E68A84243EA06030BD168
